{
  "contractName": "Authentication",
  "abi": [
    {
      "inputs": [
        {
          "name": "_manager",
          "type": "address"
        }
      ],
      "payable": false,
      "stateMutability": "nonpayable",
      "type": "constructor",
      "signature": "constructor"
    },
    {
      "constant": true,
      "inputs": [],
      "name": "login",
      "outputs": [
        {
          "name": "",
          "type": "uint8"
        }
      ],
      "payable": false,
      "stateMutability": "view",
      "type": "function",
      "signature": "0xb34e97e8"
    },
    {
      "constant": true,
      "inputs": [
        {
          "name": "_user",
          "type": "address"
        }
      ],
      "name": "isRegistered",
      "outputs": [
        {
          "name": "",
          "type": "uint8"
        }
      ],
      "payable": false,
      "stateMutability": "view",
      "type": "function",
      "signature": "0xc3c5a547"
    }
  ],
  "bytecode": "0x608060405234801561001057600080fd5b5060405160208061072d8339810180604052602081101561003057600080fd5b8101908080519060200190929190505050806000806101000a81548173ffffffffffffffffffffffffffffffffffffffff021916908373ffffffffffffffffffffffffffffffffffffffff1602179055505061069c806100916000396000f3fe60806040526004361061004c576000357c0100000000000000000000000000000000000000000000000000000000900463ffffffff168063b34e97e814610051578063c3c5a5471461008a575b600080fd5b34801561005d57600080fd5b506100666100fd565b6040518082600381111561007657fe5b60ff16815260200191505060405180910390f35b34801561009657600080fd5b506100d9600480360360208110156100ad57600080fd5b81019080803573ffffffffffffffffffffffffffffffffffffffff16906020019092919050505061010d565b604051808260038111156100e957fe5b60ff16815260200191505060405180910390f35b60006101083361010d565b905090565b60008060008060008060009054906101000a900473ffffffffffffffffffffffffffffffffffffffff1673ffffffffffffffffffffffffffffffffffffffff16636a76779f6040518163ffffffff167c010000000000000000000000000000000000000000000000000000000002815260040160206040518083038186803b15801561019857600080fd5b505afa1580156101ac573d6000803e3d6000fd5b505050506040513d60208110156101c257600080fd5b810190808051906020019092919050505073ffffffffffffffffffffffffffffffffffffffff166335a6861a876040518263ffffffff167c0100000000000000000000000000000000000000000000000000000000028152600401808273ffffffffffffffffffffffffffffffffffffffff1673ffffffffffffffffffffffffffffffffffffffff16815260200191505060806040518083038186803b15801561026b57600080fd5b505afa15801561027f573d6000803e3d6000fd5b505050506040513d608081101561029557600080fd5b810190808051906020019092919080519060200190929190805190602001909291908051906020019092919050505093509350935093506000600102841415156102e657600194505050505061066b565b6000809054906101000a900473ffffffffffffffffffffffffffffffffffffffff1673ffffffffffffffffffffffffffffffffffffffff166308edb9b36040518163ffffffff167c010000000000000000000000000000000000000000000000000000000002815260040160206040518083038186803b15801561036957600080fd5b505afa15801561037d573d6000803e3d6000fd5b505050506040513d602081101561039357600080fd5b810190808051906020019092919050505073ffffffffffffffffffffffffffffffffffffffff166335a6861a876040518263ffffffff167c0100000000000000000000000000000000000000000000000000000000028152600401808273ffffffffffffffffffffffffffffffffffffffff1673ffffffffffffffffffffffffffffffffffffffff16815260200191505060806040518083038186803b15801561043c57600080fd5b505afa158015610450573d6000803e3d6000fd5b505050506040513d608081101561046657600080fd5b8101908080519060200190929190805190602001909291908051906020019092919080519060200190929190505050809450819550829650839750505050506000600102841415156104bf57600294505050505061066b565b6000809054906101000a900473ffffffffffffffffffffffffffffffffffffffff1673ffffffffffffffffffffffffffffffffffffffff1663bd8c77ff6040518163ffffffff167c010000000000000000000000000000000000000000000000000000000002815260040160206040518083038186803b15801561054257600080fd5b505afa158015610556573d6000803e3d6000fd5b505050506040513d602081101561056c57600080fd5b810190808051906020019092919050505073ffffffffffffffffffffffffffffffffffffffff16636c2b04fd876040518263ffffffff167c0100000000000000000000000000000000000000000000000000000000028152600401808273ffffffffffffffffffffffffffffffffffffffff1673ffffffffffffffffffffffffffffffffffffffff16815260200191505060206040518083038186803b15801561061557600080fd5b505afa158015610629573d6000803e3d6000fd5b505050506040513d602081101561063f57600080fd5b81019080805190602001909291905050501561066257600394505050505061066b565b60009450505050505b91905056fea165627a7a72305820ce58c4ee86874e2fb63a881a26e626b601b8ddb97905036f0eca6855a5ffce060029",
  "source": "pragma solidity >=0.5.0;\r\n\r\nimport \"./ContractManager.sol\";\r\nimport \"./Citizen.sol\";\r\nimport \"./BusinessOwner.sol\";\r\nimport \"./Government.sol\";\r\n\r\n/// @title Authentication\r\ncontract Authentication {\r\n\r\n    enum userType { NotRegistered, Citizen, BusinessOwner, Government }\r\n\r\n\r\n    ContractManager manager;\r\n    /**\r\n    * @dev Sets the correct instance of ContractManager so that the contract may be able to call functions from other\r\n    *      contracts\r\n    * @param _manager The address of the instance of ContractManager\r\n    */\r\n    constructor(ContractManager _manager) public {\r\n        manager = _manager;\r\n    }\r\n\r\n    /**\r\n    * @dev Checks if a user with is registered in the platform\r\n    * @param _user The address of the user to check\r\n    */\r\n    modifier onlyExistingUser(address _user) {\r\n        require(isRegistered(_user) != userType.NotRegistered);\r\n        _;\r\n    }\r\n\r\n    /**\r\n    * @dev Returns the user type of the user who calls the function\r\n    */\r\n    function login() public view returns(userType){\r\n        return isRegistered(msg.sender);\r\n    }\r\n\r\n    /**\r\n    * @dev Returns the user type of a given user\r\n    * @param _user The address of the user to check\r\n    */\r\n    function isRegistered(address _user) public view returns(userType){\r\n        (bytes32 param1, bytes32 param2, bytes32 param3, bytes32 param4) = Citizen(manager.getCitizenContract()).login(_user);\r\n        if(param1 != 0x0)\r\n            return userType.Citizen;\r\n        (param1, param2, param3, param4) = BusinessOwner(manager.getBusinessOwnerContract()).login(_user);\r\n        if(param1 != 0x0)\r\n            return userType.BusinessOwner;\r\n        if(Government(manager.getGovernmentContract()).isGovernment(_user))\r\n            return userType.Government;\r\n        return userType.NotRegistered;\r\n\r\n    }\r\n\r\n\r\n}\r\n",
  "sourcePath": "E:\\Università\\Soldino-PoC\\contracts\\Authentication.sol",
  "compiler": {
    "name": "solc",
    "version": "0.5.0+commit.1d4f565a.Emscripten.clang"
  },
  "schemaVersion": "3.0.1",
  "updatedAt": "2019-03-03T19:05:09.762Z",
  "devdoc": {
    "methods": {
      "constructor": {
        "details": "Sets the correct instance of ContractManager so that the contract may be able to call functions from other\r     contracts\r",
        "params": {
          "_manager": "The address of the instance of ContractManager\r"
        }
      },
      "isRegistered(address)": {
        "details": "Returns the user type of a given user\r",
        "params": {
          "_user": "The address of the user to check\r"
        }
      },
      "login()": {
        "details": "Returns the user type of the user who calls the function\r"
      }
    },
    "title": "Authentication"
  },
  "userdoc": {
    "methods": {}
  }
}