{
  "contractName": "BusinessOwner",
  "abi": [
    {
      "inputs": [
        {
          "name": "_manager",
          "type": "address"
        }
      ],
      "payable": false,
      "stateMutability": "nonpayable",
      "type": "constructor",
      "signature": "constructor"
    },
    {
      "constant": false,
      "inputs": [
        {
          "name": "_businessName",
          "type": "bytes32"
        },
        {
          "name": "_location",
          "type": "bytes32"
        },
        {
          "name": "_VATNumber",
          "type": "bytes32"
        },
        {
          "name": "_CE",
          "type": "bytes32"
        }
      ],
      "name": "registerBusinessOwner",
      "outputs": [],
      "payable": false,
      "stateMutability": "nonpayable",
      "type": "function",
      "signature": "0x4e95acf7"
    },
    {
      "constant": true,
      "inputs": [
        {
          "name": "_user",
          "type": "address"
        }
      ],
      "name": "login",
      "outputs": [
        {
          "name": "",
          "type": "bytes32"
        },
        {
          "name": "",
          "type": "bytes32"
        },
        {
          "name": "",
          "type": "bytes32"
        },
        {
          "name": "",
          "type": "bytes32"
        }
      ],
      "payable": false,
      "stateMutability": "view",
      "type": "function",
      "signature": "0x35a6861a"
    },
    {
      "constant": true,
      "inputs": [],
      "name": "getAllBusinessOwners",
      "outputs": [
        {
          "name": "",
          "type": "address[]"
        }
      ],
      "payable": false,
      "stateMutability": "view",
      "type": "function",
      "signature": "0xbb4a7f18"
    }
  ],
  "bytecode": "0x608060405234801561001057600080fd5b506040516020806107a48339810180604052602081101561003057600080fd5b8101908080519060200190929190505050806000806101000a81548173ffffffffffffffffffffffffffffffffffffffff021916908373ffffffffffffffffffffffffffffffffffffffff16021790555050610713806100916000396000f3fe608060405260043610610057576000357c0100000000000000000000000000000000000000000000000000000000900463ffffffff16806335a6861a1461005c5780634e95acf7146100d6578063bb4a7f181461012f575b600080fd5b34801561006857600080fd5b506100ab6004803603602081101561007f57600080fd5b81019080803573ffffffffffffffffffffffffffffffffffffffff16906020019092919050505061019b565b6040518085815260200184815260200183815260200182815260200194505050505060405180910390f35b3480156100e257600080fd5b5061012d600480360360808110156100f957600080fd5b81019080803590602001909291908035906020019092919080359060200190929190803590602001909291905050506102bc565b005b34801561013b57600080fd5b50610144610659565b6040518080602001828103825283818151815260200191508051906020019060200280838360005b8381101561018757808201518184015260208101905061016c565b505050509050019250505060405180910390f35b600080600080600260008673ffffffffffffffffffffffffffffffffffffffff1673ffffffffffffffffffffffffffffffffffffffff16815260200190815260200160002060000154600260008773ffffffffffffffffffffffffffffffffffffffff1673ffffffffffffffffffffffffffffffffffffffff16815260200190815260200160002060010154600260008873ffffffffffffffffffffffffffffffffffffffff1673ffffffffffffffffffffffffffffffffffffffff16815260200190815260200160002060020154600260008973ffffffffffffffffffffffffffffffffffffffff1673ffffffffffffffffffffffffffffffffffffffff1681526020019081526020016000206003015493509350935093509193509193565b3360008060009054906101000a900473ffffffffffffffffffffffffffffffffffffffff1673ffffffffffffffffffffffffffffffffffffffff16630e8bab7d6040518163ffffffff167c010000000000000000000000000000000000000000000000000000000002815260040160206040518083038186803b15801561034257600080fd5b505afa158015610356573d6000803e3d6000fd5b505050506040513d602081101561036c57600080fd5b810190808051906020019092919050505073ffffffffffffffffffffffffffffffffffffffff1663c3c5a547836040518263ffffffff167c0100000000000000000000000000000000000000000000000000000000028152600401808273ffffffffffffffffffffffffffffffffffffffff1673ffffffffffffffffffffffffffffffffffffffff16815260200191505060206040518083038186803b15801561041557600080fd5b505afa158015610429573d6000803e3d6000fd5b505050506040513d602081101561043f57600080fd5b8101908080519060200190929190505050600381111561045b57fe5b1415156104d0576040517f08c379a00000000000000000000000000000000000000000000000000000000081526004018080602001828103825260128152602001807f416c72656164792072656769737465726564000000000000000000000000000081525060200191505060405180910390fd5b84600260003373ffffffffffffffffffffffffffffffffffffffff1673ffffffffffffffffffffffffffffffffffffffff1681526020019081526020016000206000018190555083600260003373ffffffffffffffffffffffffffffffffffffffff1673ffffffffffffffffffffffffffffffffffffffff1681526020019081526020016000206001018190555082600260003373ffffffffffffffffffffffffffffffffffffffff1673ffffffffffffffffffffffffffffffffffffffff1681526020019081526020016000206002018190555081600260003373ffffffffffffffffffffffffffffffffffffffff1673ffffffffffffffffffffffffffffffffffffffff1681526020019081526020016000206003018190555060013390806001815401808255809150509060018203906000526020600020016000909192909190916101000a81548173ffffffffffffffffffffffffffffffffffffffff021916908373ffffffffffffffffffffffffffffffffffffffff160217905550505050505050565b606060018054806020026020016040519081016040528092919081815260200182805480156106dd57602002820191906000526020600020905b8160009054906101000a900473ffffffffffffffffffffffffffffffffffffffff1673ffffffffffffffffffffffffffffffffffffffff1681526020019060010190808311610693575b505050505090509056fea165627a7a723058203ed7cfd0dadf72f3afed11debb5f39fbb544fd9030b18af8e29b4e1dc0418a160029",
  "source": "pragma solidity >=0.5.0;\r\n\r\nimport \"./ContractManager.sol\";\r\nimport \"./Authentication.sol\";\r\n\r\n/// @title Business Owner\r\ncontract BusinessOwner {\r\n\r\n    struct businessOwner {\r\n        bytes32 businessName;\r\n        bytes32 location;\r\n        bytes32 VATNumber;\r\n        bytes32 CE;\r\n    }\r\n\r\n    ContractManager manager;\r\n    address[] private registeredBusinessOwners;\r\n    mapping(address => businessOwner) private businessOwners;\r\n\r\n    /**\r\n    * @dev Sets the correct instance of ContractManager so that the contract may be able to call functions from other\r\n    *      contracts\r\n    * @param _manager The address of the instance of ContractManager\r\n    */\r\n    constructor(ContractManager _manager) public {\r\n        manager = _manager;\r\n    }\r\n\r\n    /**\r\n    * @dev Checks if the given user is a registered business owner\r\n    * @param _user The address of the user to check\r\n    */\r\n    modifier onlyBusinessOwner(address _user) {\r\n        require(!(businessOwners[_user].CE == 0x0), \"Not a business owner!\");\r\n        _;\r\n    }\r\n\r\n    /**\r\n    * @dev Checks if the given user is not registered on the platform\r\n    * @param _user The address of the user to check\r\n    */\r\n    modifier onlyNotRegistered(address _user) {\r\n        require(uint(Authentication(manager.getAuthenticationContract()).isRegistered(_user)) == 0, \"Already registered\");\r\n        _;\r\n    }\r\n\r\n    /**\r\n    * @dev Registers the user who calls this function as a business owner\r\n    * @param _businessName The name of the business to register\r\n    * @param _location The location of the business to register\r\n    * @param _VATNumber The VAT number of the business to register\r\n    * @param _CE The certified e-mail of the business to register\r\n    */\r\n    function registerBusinessOwner (bytes32 _businessName, bytes32 _location,\r\n                                    bytes32 _VATNumber, bytes32 _CE) public onlyNotRegistered(msg.sender) {\r\n        businessOwners[msg.sender].businessName = _businessName;\r\n        businessOwners[msg.sender].location = _location;\r\n        businessOwners[msg.sender].VATNumber = _VATNumber;\r\n        businessOwners[msg.sender].CE = _CE;\r\n        registeredBusinessOwners.push(msg.sender);\r\n    }\r\n\r\n    /**\r\n    * @dev Returns the data of a specific user if it's a registered business owner\r\n    * @param _user The address of the business owner whose data to return\r\n    */\r\n    function login(address _user) public view returns(bytes32, bytes32, bytes32, bytes32)  {\r\n        return (businessOwners[_user].businessName, businessOwners[_user].location,\r\n                businessOwners[_user].VATNumber, businessOwners[_user].CE);\r\n    }\r\n\r\n    /**\r\n    * @dev Returns a dynamic array containing all registered business owners' addresses\r\n    */\r\n    function getAllBusinessOwners() public view returns(address[] memory) {\r\n        return registeredBusinessOwners;\r\n    }\r\n}\r\n",
  "sourcePath": "E:\\Università\\Soldino-PoC\\contracts\\BusinessOwner.sol",
  "compiler": {
    "name": "solc",
    "version": "0.5.0+commit.1d4f565a.Emscripten.clang"
  },
  "schemaVersion": "3.0.1",
  "updatedAt": "2019-03-03T19:05:09.774Z",
  "devdoc": {
    "methods": {
      "constructor": {
        "details": "Sets the correct instance of ContractManager so that the contract may be able to call functions from other\r     contracts\r",
        "params": {
          "_manager": "The address of the instance of ContractManager\r"
        }
      },
      "getAllBusinessOwners()": {
        "details": "Returns a dynamic array containing all registered business owners' addresses\r"
      },
      "login(address)": {
        "details": "Returns the data of a specific user if it's a registered business owner\r",
        "params": {
          "_user": "The address of the business owner whose data to return\r"
        }
      },
      "registerBusinessOwner(bytes32,bytes32,bytes32,bytes32)": {
        "details": "Registers the user who calls this function as a business owner\r",
        "params": {
          "_CE": "The certified e-mail of the business to register\r",
          "_VATNumber": "The VAT number of the business to register\r",
          "_businessName": "The name of the business to register\r",
          "_location": "The location of the business to register\r"
        }
      }
    },
    "title": "Business Owner"
  },
  "userdoc": {
    "methods": {}
  }
}