{
  "contractName": "Citizen",
  "abi": [
    {
      "inputs": [
        {
          "name": "_manager",
          "type": "address"
        }
      ],
      "payable": false,
      "stateMutability": "nonpayable",
      "type": "constructor",
      "signature": "constructor"
    },
    {
      "constant": false,
      "inputs": [
        {
          "name": "_name",
          "type": "bytes32"
        },
        {
          "name": "_surname",
          "type": "bytes32"
        },
        {
          "name": "_fiscalCode",
          "type": "bytes32"
        },
        {
          "name": "_mail",
          "type": "bytes32"
        }
      ],
      "name": "registerCitizen",
      "outputs": [],
      "payable": false,
      "stateMutability": "nonpayable",
      "type": "function",
      "signature": "0xf3431235"
    },
    {
      "constant": true,
      "inputs": [
        {
          "name": "_user",
          "type": "address"
        }
      ],
      "name": "login",
      "outputs": [
        {
          "name": "",
          "type": "bytes32"
        },
        {
          "name": "",
          "type": "bytes32"
        },
        {
          "name": "",
          "type": "bytes32"
        },
        {
          "name": "",
          "type": "bytes32"
        }
      ],
      "payable": false,
      "stateMutability": "view",
      "type": "function",
      "signature": "0x35a6861a"
    },
    {
      "constant": true,
      "inputs": [],
      "name": "getAllCitizens",
      "outputs": [
        {
          "name": "",
          "type": "address[]"
        }
      ],
      "payable": false,
      "stateMutability": "view",
      "type": "function",
      "signature": "0x6c0e1ccd"
    }
  ],
  "bytecode": "0x608060405234801561001057600080fd5b506040516020806107a68339810180604052602081101561003057600080fd5b810190808051906020019092919050505080600260006101000a81548173ffffffffffffffffffffffffffffffffffffffff021916908373ffffffffffffffffffffffffffffffffffffffff16021790555050610714806100926000396000f3fe608060405260043610610057576000357c0100000000000000000000000000000000000000000000000000000000900463ffffffff16806335a6861a1461005c5780636c0e1ccd146100d6578063f343123514610142575b600080fd5b34801561006857600080fd5b506100ab6004803603602081101561007f57600080fd5b81019080803573ffffffffffffffffffffffffffffffffffffffff16906020019092919050505061019b565b6040518085815260200184815260200183815260200182815260200194505050505060405180910390f35b3480156100e257600080fd5b506100eb6102bc565b6040518080602001828103825283818151815260200191508051906020019060200280838360005b8381101561012e578082015181840152602081019050610113565b505050509050019250505060405180910390f35b34801561014e57600080fd5b506101996004803603608081101561016557600080fd5b810190808035906020019092919080359060200190929190803590602001909291908035906020019092919050505061034a565b005b600080600080600160008673ffffffffffffffffffffffffffffffffffffffff1673ffffffffffffffffffffffffffffffffffffffff16815260200190815260200160002060000154600160008773ffffffffffffffffffffffffffffffffffffffff1673ffffffffffffffffffffffffffffffffffffffff16815260200190815260200160002060010154600160008873ffffffffffffffffffffffffffffffffffffffff1673ffffffffffffffffffffffffffffffffffffffff16815260200190815260200160002060020154600160008973ffffffffffffffffffffffffffffffffffffffff1673ffffffffffffffffffffffffffffffffffffffff1681526020019081526020016000206003015493509350935093509193509193565b6060600080548060200260200160405190810160405280929190818152602001828054801561034057602002820191906000526020600020905b8160009054906101000a900473ffffffffffffffffffffffffffffffffffffffff1673ffffffffffffffffffffffffffffffffffffffff16815260200190600101908083116102f6575b5050505050905090565b336000600260009054906101000a900473ffffffffffffffffffffffffffffffffffffffff1673ffffffffffffffffffffffffffffffffffffffff16630e8bab7d6040518163ffffffff167c010000000000000000000000000000000000000000000000000000000002815260040160206040518083038186803b1580156103d157600080fd5b505afa1580156103e5573d6000803e3d6000fd5b505050506040513d60208110156103fb57600080fd5b810190808051906020019092919050505073ffffffffffffffffffffffffffffffffffffffff1663c3c5a547836040518263ffffffff167c0100000000000000000000000000000000000000000000000000000000028152600401808273ffffffffffffffffffffffffffffffffffffffff1673ffffffffffffffffffffffffffffffffffffffff16815260200191505060206040518083038186803b1580156104a457600080fd5b505afa1580156104b8573d6000803e3d6000fd5b505050506040513d60208110156104ce57600080fd5b810190808051906020019092919050505060038111156104ea57fe5b14151561055f576040517f08c379a00000000000000000000000000000000000000000000000000000000081526004018080602001828103825260128152602001807f416c72656164792072656769737465726564000000000000000000000000000081525060200191505060405180910390fd5b84600160003373ffffffffffffffffffffffffffffffffffffffff1673ffffffffffffffffffffffffffffffffffffffff1681526020019081526020016000206000018190555083600160003373ffffffffffffffffffffffffffffffffffffffff1673ffffffffffffffffffffffffffffffffffffffff1681526020019081526020016000206001018190555082600160003373ffffffffffffffffffffffffffffffffffffffff1673ffffffffffffffffffffffffffffffffffffffff1681526020019081526020016000206002018190555081600160003373ffffffffffffffffffffffffffffffffffffffff1673ffffffffffffffffffffffffffffffffffffffff1681526020019081526020016000206003018190555060003390806001815401808255809150509060018203906000526020600020016000909192909190916101000a81548173ffffffffffffffffffffffffffffffffffffffff021916908373ffffffffffffffffffffffffffffffffffffffff16021790555050505050505056fea165627a7a72305820cc6afa434842993bcdcffd469dbdd6cbb736cab0b2d6fd43279b026c5b69f64d0029",
  "source": "pragma solidity >=0.5.0;\r\n\r\nimport \"./ContractManager.sol\";\r\nimport \"./Authentication.sol\";\r\n\r\n/// @title Citizen\r\ncontract Citizen {\r\n\r\n    struct citizen {\r\n        bytes32 name;\r\n        bytes32 surname;\r\n        bytes32 fiscalCode;\r\n        bytes32 mail;\r\n    }\r\n\r\n    address[] private registeredCitizens;\r\n    mapping(address => citizen) private citizens;\r\n    ContractManager manager;\r\n\r\n    /**\r\n    * @dev Sets the correct instance of ContractManager so that the contract may be able to call functions from other\r\n    *      contracts\r\n    * @param _manager The address of the instance of ContractManager\r\n    */\r\n    constructor(ContractManager _manager) public {\r\n        manager = _manager;\r\n    }\r\n\r\n    /**\r\n    * @dev Checks if the given user is a registered citizen\r\n    * @param _user The address of the user to check\r\n    */\r\n    modifier onlyCitizen(address _user) {\r\n        require(!(citizens[_user].mail == 0x0), \"User is not a registered citizen\");\r\n        _;\r\n    }\r\n\r\n    /**\r\n    * @dev Checks if the given user is not registered on the platform\r\n    * @param _user The address of the user to check\r\n    */\r\n    modifier onlyNotRegistered(address _user) {\r\n        require(uint(Authentication(manager.getAuthenticationContract()).isRegistered(_user)) == 0, \"Already registered\");\r\n        _;\r\n    }\r\n\r\n    /**\r\n    * @dev Registers the user who calls this function as a citizen\r\n    * @param _name The name of the citizen to register\r\n    * @param _surname The surname of the citizen to register\r\n    * @param _fiscalCode The fiscal code of the citizen to register\r\n    * @param _mail The e-mail of the citizen to register\r\n    */\r\n    function registerCitizen(bytes32 _name, bytes32 _surname, bytes32 _fiscalCode, bytes32 _mail) public onlyNotRegistered(msg.sender) {\r\n        citizens[msg.sender].name = _name;\r\n        citizens[msg.sender].surname = _surname;\r\n        citizens[msg.sender].fiscalCode = _fiscalCode;\r\n        citizens[msg.sender].mail = _mail;\r\n        registeredCitizens.push(msg.sender);\r\n    }\r\n\r\n    /**\r\n    * @dev Returns the data of a specific user if it's a registered citizen\r\n    * @param _user The address of the citizen whose data to return\r\n    */\r\n    function login(address _user) public view returns(bytes32, bytes32, bytes32, bytes32)  {\r\n        return (citizens[_user].name, citizens[_user].surname, citizens[_user].fiscalCode, citizens[_user].mail);\r\n    }\r\n\r\n    /**\r\n    * @dev Returns a dynamic array containing all registered citizens' addresses\r\n    */\r\n    function getAllCitizens() public view returns(address[] memory) {\r\n        return registeredCitizens;\r\n    }\r\n}\r\n",
  "sourcePath": "E:\\Università\\Soldino-PoC\\contracts\\Citizen.sol",
  "compiler": {
    "name": "solc",
    "version": "0.5.0+commit.1d4f565a.Emscripten.clang"
  },
  "schemaVersion": "3.0.1",
  "updatedAt": "2019-03-03T19:05:09.778Z",
  "devdoc": {
    "methods": {
      "constructor": {
        "details": "Sets the correct instance of ContractManager so that the contract may be able to call functions from other\r     contracts\r",
        "params": {
          "_manager": "The address of the instance of ContractManager\r"
        }
      },
      "getAllCitizens()": {
        "details": "Returns a dynamic array containing all registered citizens' addresses\r"
      },
      "login(address)": {
        "details": "Returns the data of a specific user if it's a registered citizen\r",
        "params": {
          "_user": "The address of the citizen whose data to return\r"
        }
      },
      "registerCitizen(bytes32,bytes32,bytes32,bytes32)": {
        "details": "Registers the user who calls this function as a citizen\r",
        "params": {
          "_fiscalCode": "The fiscal code of the citizen to register\r",
          "_mail": "The e-mail of the citizen to register\r",
          "_name": "The name of the citizen to register\r",
          "_surname": "The surname of the citizen to register\r"
        }
      }
    },
    "title": "Citizen"
  },
  "userdoc": {
    "methods": {}
  }
}