{
  "contractName": "ContractManager",
  "abi": [
    {
      "inputs": [],
      "payable": false,
      "stateMutability": "nonpayable",
      "type": "constructor",
      "signature": "constructor"
    },
    {
      "constant": true,
      "inputs": [],
      "name": "getGovernment",
      "outputs": [
        {
          "name": "",
          "type": "address"
        }
      ],
      "payable": false,
      "stateMutability": "view",
      "type": "function",
      "signature": "0x81b4690d"
    },
    {
      "constant": true,
      "inputs": [],
      "name": "getAuthenticationContract",
      "outputs": [
        {
          "name": "",
          "type": "address"
        }
      ],
      "payable": false,
      "stateMutability": "view",
      "type": "function",
      "signature": "0x0e8bab7d"
    },
    {
      "constant": true,
      "inputs": [],
      "name": "getBusinessOwnerContract",
      "outputs": [
        {
          "name": "",
          "type": "address"
        }
      ],
      "payable": false,
      "stateMutability": "view",
      "type": "function",
      "signature": "0x08edb9b3"
    },
    {
      "constant": true,
      "inputs": [],
      "name": "getCitizenContract",
      "outputs": [
        {
          "name": "",
          "type": "address"
        }
      ],
      "payable": false,
      "stateMutability": "view",
      "type": "function",
      "signature": "0x6a76779f"
    },
    {
      "constant": true,
      "inputs": [],
      "name": "getCubitContract",
      "outputs": [
        {
          "name": "",
          "type": "address"
        }
      ],
      "payable": false,
      "stateMutability": "view",
      "type": "function",
      "signature": "0xf03888be"
    },
    {
      "constant": true,
      "inputs": [],
      "name": "getGovernmentContract",
      "outputs": [
        {
          "name": "",
          "type": "address"
        }
      ],
      "payable": false,
      "stateMutability": "view",
      "type": "function",
      "signature": "0xbd8c77ff"
    },
    {
      "constant": true,
      "inputs": [],
      "name": "getProductContract",
      "outputs": [
        {
          "name": "",
          "type": "address"
        }
      ],
      "payable": false,
      "stateMutability": "view",
      "type": "function",
      "signature": "0x44d451dd"
    },
    {
      "constant": false,
      "inputs": [
        {
          "name": "_contract",
          "type": "address"
        }
      ],
      "name": "setAuthenticationContract",
      "outputs": [],
      "payable": false,
      "stateMutability": "nonpayable",
      "type": "function",
      "signature": "0x383788a3"
    },
    {
      "constant": false,
      "inputs": [
        {
          "name": "_contract",
          "type": "address"
        }
      ],
      "name": "setBusinessOwnerContract",
      "outputs": [],
      "payable": false,
      "stateMutability": "nonpayable",
      "type": "function",
      "signature": "0xe198ea3a"
    },
    {
      "constant": false,
      "inputs": [
        {
          "name": "_contract",
          "type": "address"
        }
      ],
      "name": "setCitizenContract",
      "outputs": [],
      "payable": false,
      "stateMutability": "nonpayable",
      "type": "function",
      "signature": "0x82b1168d"
    },
    {
      "constant": false,
      "inputs": [
        {
          "name": "_contract",
          "type": "address"
        }
      ],
      "name": "setCubitContract",
      "outputs": [],
      "payable": false,
      "stateMutability": "nonpayable",
      "type": "function",
      "signature": "0xf51b8fb7"
    },
    {
      "constant": false,
      "inputs": [
        {
          "name": "_contract",
          "type": "address"
        }
      ],
      "name": "setGovernmentContract",
      "outputs": [],
      "payable": false,
      "stateMutability": "nonpayable",
      "type": "function",
      "signature": "0x19e1ac84"
    },
    {
      "constant": false,
      "inputs": [
        {
          "name": "_contract",
          "type": "address"
        }
      ],
      "name": "setProductContract",
      "outputs": [],
      "payable": false,
      "stateMutability": "nonpayable",
      "type": "function",
      "signature": "0xe41d3a02"
    }
  ],
  "bytecode": "0x608060405234801561001057600080fd5b50336000806101000a81548173ffffffffffffffffffffffffffffffffffffffff021916908373ffffffffffffffffffffffffffffffffffffffff160217905550610a1c806100606000396000f3fe6080604052600436106100c5576000357c0100000000000000000000000000000000000000000000000000000000900463ffffffff16806308edb9b3146100ca5780630e8bab7d1461012157806319e1ac8414610178578063383788a3146101c957806344d451dd1461021a5780636a76779f1461027157806381b4690d146102c857806382b1168d1461031f578063bd8c77ff14610370578063e198ea3a146103c7578063e41d3a0214610418578063f03888be14610469578063f51b8fb7146104c0575b600080fd5b3480156100d657600080fd5b506100df610511565b604051808273ffffffffffffffffffffffffffffffffffffffff1673ffffffffffffffffffffffffffffffffffffffff16815260200191505060405180910390f35b34801561012d57600080fd5b5061013661053b565b604051808273ffffffffffffffffffffffffffffffffffffffff1673ffffffffffffffffffffffffffffffffffffffff16815260200191505060405180910390f35b34801561018457600080fd5b506101c76004803603602081101561019b57600080fd5b81019080803573ffffffffffffffffffffffffffffffffffffffff169060200190929190505050610565565b005b3480156101d557600080fd5b50610218600480360360208110156101ec57600080fd5b81019080803573ffffffffffffffffffffffffffffffffffffffff169060200190929190505050610604565b005b34801561022657600080fd5b5061022f6106a3565b604051808273ffffffffffffffffffffffffffffffffffffffff1673ffffffffffffffffffffffffffffffffffffffff16815260200191505060405180910390f35b34801561027d57600080fd5b506102866106cd565b604051808273ffffffffffffffffffffffffffffffffffffffff1673ffffffffffffffffffffffffffffffffffffffff16815260200191505060405180910390f35b3480156102d457600080fd5b506102dd6106f7565b604051808273ffffffffffffffffffffffffffffffffffffffff1673ffffffffffffffffffffffffffffffffffffffff16815260200191505060405180910390f35b34801561032b57600080fd5b5061036e6004803603602081101561034257600080fd5b81019080803573ffffffffffffffffffffffffffffffffffffffff169060200190929190505050610720565b005b34801561037c57600080fd5b506103856107bf565b604051808273ffffffffffffffffffffffffffffffffffffffff1673ffffffffffffffffffffffffffffffffffffffff16815260200191505060405180910390f35b3480156103d357600080fd5b50610416600480360360208110156103ea57600080fd5b81019080803573ffffffffffffffffffffffffffffffffffffffff1690602001909291905050506107e9565b005b34801561042457600080fd5b506104676004803603602081101561043b57600080fd5b81019080803573ffffffffffffffffffffffffffffffffffffffff169060200190929190505050610888565b005b34801561047557600080fd5b5061047e610927565b604051808273ffffffffffffffffffffffffffffffffffffffff1673ffffffffffffffffffffffffffffffffffffffff16815260200191505060405180910390f35b3480156104cc57600080fd5b5061050f600480360360208110156104e357600080fd5b81019080803573ffffffffffffffffffffffffffffffffffffffff169060200190929190505050610951565b005b6000600260009054906101000a900473ffffffffffffffffffffffffffffffffffffffff16905090565b6000600160009054906101000a900473ffffffffffffffffffffffffffffffffffffffff16905090565b6000809054906101000a900473ffffffffffffffffffffffffffffffffffffffff1673ffffffffffffffffffffffffffffffffffffffff163373ffffffffffffffffffffffffffffffffffffffff161415156105c057600080fd5b80600560006101000a81548173ffffffffffffffffffffffffffffffffffffffff021916908373ffffffffffffffffffffffffffffffffffffffff16021790555050565b6000809054906101000a900473ffffffffffffffffffffffffffffffffffffffff1673ffffffffffffffffffffffffffffffffffffffff163373ffffffffffffffffffffffffffffffffffffffff1614151561065f57600080fd5b80600160006101000a81548173ffffffffffffffffffffffffffffffffffffffff021916908373ffffffffffffffffffffffffffffffffffffffff16021790555050565b6000600660009054906101000a900473ffffffffffffffffffffffffffffffffffffffff16905090565b6000600360009054906101000a900473ffffffffffffffffffffffffffffffffffffffff16905090565b60008060009054906101000a900473ffffffffffffffffffffffffffffffffffffffff16905090565b6000809054906101000a900473ffffffffffffffffffffffffffffffffffffffff1673ffffffffffffffffffffffffffffffffffffffff163373ffffffffffffffffffffffffffffffffffffffff1614151561077b57600080fd5b80600360006101000a81548173ffffffffffffffffffffffffffffffffffffffff021916908373ffffffffffffffffffffffffffffffffffffffff16021790555050565b6000600560009054906101000a900473ffffffffffffffffffffffffffffffffffffffff16905090565b6000809054906101000a900473ffffffffffffffffffffffffffffffffffffffff1673ffffffffffffffffffffffffffffffffffffffff163373ffffffffffffffffffffffffffffffffffffffff1614151561084457600080fd5b80600260006101000a81548173ffffffffffffffffffffffffffffffffffffffff021916908373ffffffffffffffffffffffffffffffffffffffff16021790555050565b6000809054906101000a900473ffffffffffffffffffffffffffffffffffffffff1673ffffffffffffffffffffffffffffffffffffffff163373ffffffffffffffffffffffffffffffffffffffff161415156108e357600080fd5b80600660006101000a81548173ffffffffffffffffffffffffffffffffffffffff021916908373ffffffffffffffffffffffffffffffffffffffff16021790555050565b6000600460009054906101000a900473ffffffffffffffffffffffffffffffffffffffff16905090565b6000809054906101000a900473ffffffffffffffffffffffffffffffffffffffff1673ffffffffffffffffffffffffffffffffffffffff163373ffffffffffffffffffffffffffffffffffffffff161415156109ac57600080fd5b80600460006101000a81548173ffffffffffffffffffffffffffffffffffffffff021916908373ffffffffffffffffffffffffffffffffffffffff1602179055505056fea165627a7a72305820a2e1a856add3ffd681633cd6150a7312cbb694d8aedf0923254f83cbe90229eb0029",
  "source": "pragma solidity >=0.5.0;\r\n\r\n/// @title Contract Manager\r\ncontract ContractManager {\r\n\r\n    address government;\r\n\r\n    address AuthenticationContract;\r\n    address BusinessOwnerContract;\r\n    address CitizenContract;\r\n    address CubitContract;\r\n    address GovernmentContract;\r\n    address ProductContract;\r\n\r\n    /**\r\n    * @dev Sets the address of the government user to msg.sender\r\n    */\r\n    constructor() public {\r\n        government = msg.sender;\r\n    }\r\n\r\n    /**\r\n    * @dev Checks if the user who calls a function is the government\r\n    */\r\n    modifier onlyGovernment() {\r\n        require(msg.sender == government);\r\n        _;\r\n    }\r\n\r\n    /**\r\n    * @dev Returns the address of the government user\r\n    */\r\n    function getGovernment() public view returns(address) {\r\n        return government;\r\n    }\r\n\r\n    /**\r\n    * @dev Returns the address of the instance of Authentication.sol\r\n    */\r\n    function getAuthenticationContract() public view returns(address) {\r\n        return AuthenticationContract;\r\n    }\r\n\r\n    /**\r\n    * @dev Returns the address of the instance of BusinessOwner.sol\r\n    */\r\n    function getBusinessOwnerContract() public view returns(address) {\r\n        return BusinessOwnerContract;\r\n    }\r\n\r\n    /**\r\n    * @dev Returns the address of the instance of Citizen.sol\r\n    */\r\n    function getCitizenContract() public view returns(address) {\r\n        return CitizenContract;\r\n    }\r\n\r\n    /**\r\n    * @dev Returns the address of the instance of Cubit.sol\r\n    */\r\n    function getCubitContract() public view returns(address) {\r\n        return CubitContract;\r\n    }\r\n\r\n    /**\r\n    * @dev Returns the address of the instance of Government.sol\r\n    */\r\n    function getGovernmentContract() public view returns(address) {\r\n        return GovernmentContract;\r\n    }\r\n\r\n    /**\r\n    * @dev Returns the address of the instance of Product.sol\r\n    */\r\n    function getProductContract() public view returns(address) {\r\n        return ProductContract;\r\n    }\r\n\r\n\r\n    /**\r\n    * @dev Used to set the address of the instance of Authentication.sol\r\n    * @param _contract The new address of the contract\r\n    */\r\n    function setAuthenticationContract(address _contract) onlyGovernment public {\r\n        AuthenticationContract = _contract;\r\n    }\r\n\r\n    /**\r\n    * @dev Used to set the address of the instance of BusinessOwner.sol\r\n    * @param _contract The new address of the contract\r\n    */\r\n    function setBusinessOwnerContract(address _contract) onlyGovernment public {\r\n        BusinessOwnerContract = _contract;\r\n    }\r\n\r\n    /**\r\n    * @dev Used to set the address of the instance of Citizen.sol\r\n    * @param _contract The new address of the contract\r\n    */\r\n    function setCitizenContract(address _contract) onlyGovernment public {\r\n        CitizenContract = _contract;\r\n    }\r\n\r\n    /**\r\n    * @dev Used to set the address of the instance of Cubit.sol\r\n    * @param _contract The new address of the contract\r\n    */\r\n    function setCubitContract(address _contract) onlyGovernment public {\r\n        CubitContract = _contract;\r\n    }\r\n\r\n    /**\r\n    * @dev Used to set the address of the instance of Government.sol\r\n    * @param _contract The new address of the contract\r\n    */\r\n    function setGovernmentContract(address payable _contract) onlyGovernment public {\r\n        GovernmentContract = _contract;\r\n    }\r\n\r\n    /**\r\n    * @dev Used to set the address of the instance of Product.sol\r\n    * @param _contract The new address of the contract\r\n    */\r\n    function setProductContract(address payable _contract) onlyGovernment public {\r\n        ProductContract = _contract;\r\n    }\r\n\r\n\r\n\r\n}\r\n",
  "sourcePath": "E:\\Università\\Soldino-PoC\\contracts\\ContractManager.sol",
  "compiler": {
    "name": "solc",
    "version": "0.5.0+commit.1d4f565a.Emscripten.clang"
  },
  "schemaVersion": "3.0.1",
  "updatedAt": "2019-03-03T19:05:09.767Z",
  "devdoc": {
    "methods": {
      "constructor": {
        "details": "Sets the address of the government user to msg.sender\r"
      },
      "getAuthenticationContract()": {
        "details": "Returns the address of the instance of Authentication.sol\r"
      },
      "getBusinessOwnerContract()": {
        "details": "Returns the address of the instance of BusinessOwner.sol\r"
      },
      "getCitizenContract()": {
        "details": "Returns the address of the instance of Citizen.sol\r"
      },
      "getCubitContract()": {
        "details": "Returns the address of the instance of Cubit.sol\r"
      },
      "getGovernment()": {
        "details": "Returns the address of the government user\r"
      },
      "getGovernmentContract()": {
        "details": "Returns the address of the instance of Government.sol\r"
      },
      "getProductContract()": {
        "details": "Returns the address of the instance of Product.sol\r"
      },
      "setAuthenticationContract(address)": {
        "details": "Used to set the address of the instance of Authentication.sol\r",
        "params": {
          "_contract": "The new address of the contract\r"
        }
      },
      "setBusinessOwnerContract(address)": {
        "details": "Used to set the address of the instance of BusinessOwner.sol\r",
        "params": {
          "_contract": "The new address of the contract\r"
        }
      },
      "setCitizenContract(address)": {
        "details": "Used to set the address of the instance of Citizen.sol\r",
        "params": {
          "_contract": "The new address of the contract\r"
        }
      },
      "setCubitContract(address)": {
        "details": "Used to set the address of the instance of Cubit.sol\r",
        "params": {
          "_contract": "The new address of the contract\r"
        }
      },
      "setGovernmentContract(address)": {
        "details": "Used to set the address of the instance of Government.sol\r",
        "params": {
          "_contract": "The new address of the contract\r"
        }
      },
      "setProductContract(address)": {
        "details": "Used to set the address of the instance of Product.sol\r",
        "params": {
          "_contract": "The new address of the contract\r"
        }
      }
    },
    "title": "Contract Manager"
  },
  "userdoc": {
    "methods": {}
  }
}