{
  "contractName": "Cubit",
  "abi": [
    {
      "constant": true,
      "inputs": [],
      "name": "name",
      "outputs": [
        {
          "name": "",
          "type": "string"
        }
      ],
      "payable": false,
      "stateMutability": "view",
      "type": "function",
      "signature": "0x06fdde03"
    },
    {
      "constant": false,
      "inputs": [
        {
          "name": "spender",
          "type": "address"
        },
        {
          "name": "value",
          "type": "uint256"
        }
      ],
      "name": "approve",
      "outputs": [
        {
          "name": "",
          "type": "bool"
        }
      ],
      "payable": false,
      "stateMutability": "nonpayable",
      "type": "function",
      "signature": "0x095ea7b3"
    },
    {
      "constant": true,
      "inputs": [],
      "name": "totalSupply",
      "outputs": [
        {
          "name": "",
          "type": "uint256"
        }
      ],
      "payable": false,
      "stateMutability": "view",
      "type": "function",
      "signature": "0x18160ddd"
    },
    {
      "constant": false,
      "inputs": [
        {
          "name": "from",
          "type": "address"
        },
        {
          "name": "to",
          "type": "address"
        },
        {
          "name": "value",
          "type": "uint256"
        }
      ],
      "name": "transferFrom",
      "outputs": [
        {
          "name": "",
          "type": "bool"
        }
      ],
      "payable": false,
      "stateMutability": "nonpayable",
      "type": "function",
      "signature": "0x23b872dd"
    },
    {
      "constant": true,
      "inputs": [],
      "name": "INITIAL_SUPPLY",
      "outputs": [
        {
          "name": "",
          "type": "uint256"
        }
      ],
      "payable": false,
      "stateMutability": "view",
      "type": "function",
      "signature": "0x2ff2e9dc"
    },
    {
      "constant": true,
      "inputs": [],
      "name": "decimals",
      "outputs": [
        {
          "name": "",
          "type": "uint8"
        }
      ],
      "payable": false,
      "stateMutability": "view",
      "type": "function",
      "signature": "0x313ce567"
    },
    {
      "constant": false,
      "inputs": [
        {
          "name": "spender",
          "type": "address"
        },
        {
          "name": "addedValue",
          "type": "uint256"
        }
      ],
      "name": "increaseAllowance",
      "outputs": [
        {
          "name": "",
          "type": "bool"
        }
      ],
      "payable": false,
      "stateMutability": "nonpayable",
      "type": "function",
      "signature": "0x39509351"
    },
    {
      "constant": false,
      "inputs": [
        {
          "name": "to",
          "type": "address"
        },
        {
          "name": "value",
          "type": "uint256"
        }
      ],
      "name": "mint",
      "outputs": [
        {
          "name": "",
          "type": "bool"
        }
      ],
      "payable": false,
      "stateMutability": "nonpayable",
      "type": "function",
      "signature": "0x40c10f19"
    },
    {
      "constant": true,
      "inputs": [
        {
          "name": "owner",
          "type": "address"
        }
      ],
      "name": "balanceOf",
      "outputs": [
        {
          "name": "",
          "type": "uint256"
        }
      ],
      "payable": false,
      "stateMutability": "view",
      "type": "function",
      "signature": "0x70a08231"
    },
    {
      "constant": true,
      "inputs": [],
      "name": "symbol",
      "outputs": [
        {
          "name": "",
          "type": "string"
        }
      ],
      "payable": false,
      "stateMutability": "view",
      "type": "function",
      "signature": "0x95d89b41"
    },
    {
      "constant": false,
      "inputs": [
        {
          "name": "account",
          "type": "address"
        }
      ],
      "name": "addMinter",
      "outputs": [],
      "payable": false,
      "stateMutability": "nonpayable",
      "type": "function",
      "signature": "0x983b2d56"
    },
    {
      "constant": false,
      "inputs": [],
      "name": "renounceMinter",
      "outputs": [],
      "payable": false,
      "stateMutability": "nonpayable",
      "type": "function",
      "signature": "0x98650275"
    },
    {
      "constant": false,
      "inputs": [
        {
          "name": "spender",
          "type": "address"
        },
        {
          "name": "subtractedValue",
          "type": "uint256"
        }
      ],
      "name": "decreaseAllowance",
      "outputs": [
        {
          "name": "",
          "type": "bool"
        }
      ],
      "payable": false,
      "stateMutability": "nonpayable",
      "type": "function",
      "signature": "0xa457c2d7"
    },
    {
      "constant": false,
      "inputs": [
        {
          "name": "to",
          "type": "address"
        },
        {
          "name": "value",
          "type": "uint256"
        }
      ],
      "name": "transfer",
      "outputs": [
        {
          "name": "",
          "type": "bool"
        }
      ],
      "payable": false,
      "stateMutability": "nonpayable",
      "type": "function",
      "signature": "0xa9059cbb"
    },
    {
      "constant": true,
      "inputs": [
        {
          "name": "account",
          "type": "address"
        }
      ],
      "name": "isMinter",
      "outputs": [
        {
          "name": "",
          "type": "bool"
        }
      ],
      "payable": false,
      "stateMutability": "view",
      "type": "function",
      "signature": "0xaa271e1a"
    },
    {
      "constant": true,
      "inputs": [
        {
          "name": "owner",
          "type": "address"
        },
        {
          "name": "spender",
          "type": "address"
        }
      ],
      "name": "allowance",
      "outputs": [
        {
          "name": "",
          "type": "uint256"
        }
      ],
      "payable": false,
      "stateMutability": "view",
      "type": "function",
      "signature": "0xdd62ed3e"
    },
    {
      "inputs": [],
      "payable": false,
      "stateMutability": "nonpayable",
      "type": "constructor",
      "signature": "constructor"
    },
    {
      "anonymous": false,
      "inputs": [
        {
          "indexed": true,
          "name": "account",
          "type": "address"
        }
      ],
      "name": "MinterAdded",
      "type": "event",
      "signature": "0x6ae172837ea30b801fbfcdd4108aa1d5bf8ff775444fd70256b44e6bf3dfc3f6"
    },
    {
      "anonymous": false,
      "inputs": [
        {
          "indexed": true,
          "name": "account",
          "type": "address"
        }
      ],
      "name": "MinterRemoved",
      "type": "event",
      "signature": "0xe94479a9f7e1952cc78f2d6baab678adc1b772d936c6583def489e524cb66692"
    },
    {
      "anonymous": false,
      "inputs": [
        {
          "indexed": true,
          "name": "from",
          "type": "address"
        },
        {
          "indexed": true,
          "name": "to",
          "type": "address"
        },
        {
          "indexed": false,
          "name": "value",
          "type": "uint256"
        }
      ],
      "name": "Transfer",
      "type": "event",
      "signature": "0xddf252ad1be2c89b69c2b068fc378daa952ba7f163c4a11628f55a4df523b3ef"
    },
    {
      "anonymous": false,
      "inputs": [
        {
          "indexed": true,
          "name": "owner",
          "type": "address"
        },
        {
          "indexed": true,
          "name": "spender",
          "type": "address"
        },
        {
          "indexed": false,
          "name": "value",
          "type": "uint256"
        }
      ],
      "name": "Approval",
      "type": "event",
      "signature": "0x8c5be1e5ebec7d5bd14f71427d1e84f3dd0314c0f7b2291e5b200ac8c7c3b925"
    }
  ],
  "bytecode": "0x60806040526040805190810160405280600581526020017f4375626974000000000000000000000000000000000000000000000000000000815250600490805190602001906200005192919062000465565b506040805190810160405280600381526020017f4355420000000000000000000000000000000000000000000000000000000000815250600590805190602001906200009f92919062000465565b506002600660006101000a81548160ff021916908360ff1602179055506000600755348015620000ce57600080fd5b50620000e9336200010c640100000000026401000000009004565b620001063360075462000176640100000000026401000000009004565b62000514565b62000130816003620002eb6401000000000262001624179091906401000000009004565b8073ffffffffffffffffffffffffffffffffffffffff167f6ae172837ea30b801fbfcdd4108aa1d5bf8ff775444fd70256b44e6bf3dfc3f660405160405180910390a250565b600073ffffffffffffffffffffffffffffffffffffffff168273ffffffffffffffffffffffffffffffffffffffff1614151515620001b357600080fd5b620001d881600254620003ae6401000000000262001367179091906401000000009004565b6002819055506200023f816000808573ffffffffffffffffffffffffffffffffffffffff1673ffffffffffffffffffffffffffffffffffffffff16815260200190815260200160002054620003ae6401000000000262001367179091906401000000009004565b6000808473ffffffffffffffffffffffffffffffffffffffff1673ffffffffffffffffffffffffffffffffffffffff168152602001908152602001600020819055508173ffffffffffffffffffffffffffffffffffffffff16600073ffffffffffffffffffffffffffffffffffffffff167fddf252ad1be2c89b69c2b068fc378daa952ba7f163c4a11628f55a4df523b3ef836040518082815260200191505060405180910390a35050565b600073ffffffffffffffffffffffffffffffffffffffff168173ffffffffffffffffffffffffffffffffffffffff16141515156200032857600080fd5b620003438282620003d0640100000000026401000000009004565b1515156200035057600080fd5b60018260000160008373ffffffffffffffffffffffffffffffffffffffff1673ffffffffffffffffffffffffffffffffffffffff16815260200190815260200160002060006101000a81548160ff0219169083151502179055505050565b6000808284019050838110151515620003c657600080fd5b8091505092915050565b60008073ffffffffffffffffffffffffffffffffffffffff168273ffffffffffffffffffffffffffffffffffffffff16141515156200040e57600080fd5b8260000160008373ffffffffffffffffffffffffffffffffffffffff1673ffffffffffffffffffffffffffffffffffffffff16815260200190815260200160002060009054906101000a900460ff16905092915050565b828054600181600116156101000203166002900490600052602060002090601f016020900481019282601f10620004a857805160ff1916838001178555620004d9565b82800160010185558215620004d9579182015b82811115620004d8578251825591602001919060010190620004bb565b5b509050620004e89190620004ec565b5090565b6200051191905b808211156200050d576000816000905550600101620004f3565b5090565b90565b6117af80620005246000396000f3fe6080604052600436106100e6576000357c0100000000000000000000000000000000000000000000000000000000900463ffffffff16806306fdde03146100eb578063095ea7b31461017b57806318160ddd146101ee57806323b872dd146102195780632ff2e9dc146102ac578063313ce567146102d7578063395093511461030857806340c10f191461037b57806370a08231146103ee57806395d89b4114610453578063983b2d56146104e35780639865027514610534578063a457c2d71461054b578063a9059cbb146105be578063aa271e1a14610631578063dd62ed3e1461069a575b600080fd5b3480156100f757600080fd5b5061010061071f565b6040518080602001828103825283818151815260200191508051906020019080838360005b83811015610140578082015181840152602081019050610125565b50505050905090810190601f16801561016d5780820380516001836020036101000a031916815260200191505b509250505060405180910390f35b34801561018757600080fd5b506101d46004803603604081101561019e57600080fd5b81019080803573ffffffffffffffffffffffffffffffffffffffff169060200190929190803590602001909291905050506107bd565b604051808215151515815260200191505060405180910390f35b3480156101fa57600080fd5b506102036108ea565b6040518082815260200191505060405180910390f35b34801561022557600080fd5b506102926004803603606081101561023c57600080fd5b81019080803573ffffffffffffffffffffffffffffffffffffffff169060200190929190803573ffffffffffffffffffffffffffffffffffffffff169060200190929190803590602001909291905050506108f4565b604051808215151515815260200191505060405180910390f35b3480156102b857600080fd5b506102c1610afc565b6040518082815260200191505060405180910390f35b3480156102e357600080fd5b506102ec610b02565b604051808260ff1660ff16815260200191505060405180910390f35b34801561031457600080fd5b506103616004803603604081101561032b57600080fd5b81019080803573ffffffffffffffffffffffffffffffffffffffff16906020019092919080359060200190929190505050610b15565b604051808215151515815260200191505060405180910390f35b34801561038757600080fd5b506103d46004803603604081101561039e57600080fd5b81019080803573ffffffffffffffffffffffffffffffffffffffff16906020019092919080359060200190929190505050610d4c565b604051808215151515815260200191505060405180910390f35b3480156103fa57600080fd5b5061043d6004803603602081101561041157600080fd5b81019080803573ffffffffffffffffffffffffffffffffffffffff169060200190929190505050610d76565b6040518082815260200191505060405180910390f35b34801561045f57600080fd5b50610468610dbe565b6040518080602001828103825283818151815260200191508051906020019080838360005b838110156104a857808201518184015260208101905061048d565b50505050905090810190601f1680156104d55780820380516001836020036101000a031916815260200191505b509250505060405180910390f35b3480156104ef57600080fd5b506105326004803603602081101561050657600080fd5b81019080803573ffffffffffffffffffffffffffffffffffffffff169060200190929190505050610e5c565b005b34801561054057600080fd5b50610549610e7c565b005b34801561055757600080fd5b506105a46004803603604081101561056e57600080fd5b81019080803573ffffffffffffffffffffffffffffffffffffffff16906020019092919080359060200190929190505050610e87565b604051808215151515815260200191505060405180910390f35b3480156105ca57600080fd5b50610617600480360360408110156105e157600080fd5b81019080803573ffffffffffffffffffffffffffffffffffffffff169060200190929190803590602001909291905050506110be565b604051808215151515815260200191505060405180910390f35b34801561063d57600080fd5b506106806004803603602081101561065457600080fd5b81019080803573ffffffffffffffffffffffffffffffffffffffff1690602001909291905050506110d5565b604051808215151515815260200191505060405180910390f35b3480156106a657600080fd5b50610709600480360360408110156106bd57600080fd5b81019080803573ffffffffffffffffffffffffffffffffffffffff169060200190929190803573ffffffffffffffffffffffffffffffffffffffff1690602001909291905050506110f2565b6040518082815260200191505060405180910390f35b60048054600181600116156101000203166002900480601f0160208091040260200160405190810160405280929190818152602001828054600181600116156101000203166002900480156107b55780601f1061078a576101008083540402835291602001916107b5565b820191906000526020600020905b81548152906001019060200180831161079857829003601f168201915b505050505081565b60008073ffffffffffffffffffffffffffffffffffffffff168373ffffffffffffffffffffffffffffffffffffffff16141515156107fa57600080fd5b81600160003373ffffffffffffffffffffffffffffffffffffffff1673ffffffffffffffffffffffffffffffffffffffff16815260200190815260200160002060008573ffffffffffffffffffffffffffffffffffffffff1673ffffffffffffffffffffffffffffffffffffffff168152602001908152602001600020819055508273ffffffffffffffffffffffffffffffffffffffff163373ffffffffffffffffffffffffffffffffffffffff167f8c5be1e5ebec7d5bd14f71427d1e84f3dd0314c0f7b2291e5b200ac8c7c3b925846040518082815260200191505060405180910390a36001905092915050565b6000600254905090565b600061098582600160008773ffffffffffffffffffffffffffffffffffffffff1673ffffffffffffffffffffffffffffffffffffffff16815260200190815260200160002060003373ffffffffffffffffffffffffffffffffffffffff1673ffffffffffffffffffffffffffffffffffffffff1681526020019081526020016000205461117990919063ffffffff16565b600160008673ffffffffffffffffffffffffffffffffffffffff1673ffffffffffffffffffffffffffffffffffffffff16815260200190815260200160002060003373ffffffffffffffffffffffffffffffffffffffff1673ffffffffffffffffffffffffffffffffffffffff16815260200190815260200160002081905550610a1084848461119b565b3373ffffffffffffffffffffffffffffffffffffffff168473ffffffffffffffffffffffffffffffffffffffff167f8c5be1e5ebec7d5bd14f71427d1e84f3dd0314c0f7b2291e5b200ac8c7c3b925600160008873ffffffffffffffffffffffffffffffffffffffff1673ffffffffffffffffffffffffffffffffffffffff16815260200190815260200160002060003373ffffffffffffffffffffffffffffffffffffffff1673ffffffffffffffffffffffffffffffffffffffff168152602001908152602001600020546040518082815260200191505060405180910390a3600190509392505050565b60075481565b600660009054906101000a900460ff1681565b60008073ffffffffffffffffffffffffffffffffffffffff168373ffffffffffffffffffffffffffffffffffffffff1614151515610b5257600080fd5b610be182600160003373ffffffffffffffffffffffffffffffffffffffff1673ffffffffffffffffffffffffffffffffffffffff16815260200190815260200160002060008673ffffffffffffffffffffffffffffffffffffffff1673ffffffffffffffffffffffffffffffffffffffff1681526020019081526020016000205461136790919063ffffffff16565b600160003373ffffffffffffffffffffffffffffffffffffffff1673ffffffffffffffffffffffffffffffffffffffff16815260200190815260200160002060008573ffffffffffffffffffffffffffffffffffffffff1673ffffffffffffffffffffffffffffffffffffffff168152602001908152602001600020819055508273ffffffffffffffffffffffffffffffffffffffff163373ffffffffffffffffffffffffffffffffffffffff167f8c5be1e5ebec7d5bd14f71427d1e84f3dd0314c0f7b2291e5b200ac8c7c3b925600160003373ffffffffffffffffffffffffffffffffffffffff1673ffffffffffffffffffffffffffffffffffffffff16815260200190815260200160002060008773ffffffffffffffffffffffffffffffffffffffff1673ffffffffffffffffffffffffffffffffffffffff168152602001908152602001600020546040518082815260200191505060405180910390a36001905092915050565b6000610d57336110d5565b1515610d6257600080fd5b610d6c8383611388565b6001905092915050565b60008060008373ffffffffffffffffffffffffffffffffffffffff1673ffffffffffffffffffffffffffffffffffffffff168152602001908152602001600020549050919050565b60058054600181600116156101000203166002900480601f016020809104026020016040519081016040528092919081815260200182805460018160011615610100020316600290048015610e545780601f10610e2957610100808354040283529160200191610e54565b820191906000526020600020905b815481529060010190602001808311610e3757829003601f168201915b505050505081565b610e65336110d5565b1515610e7057600080fd5b610e79816114dc565b50565b610e8533611536565b565b60008073ffffffffffffffffffffffffffffffffffffffff168373ffffffffffffffffffffffffffffffffffffffff1614151515610ec457600080fd5b610f5382600160003373ffffffffffffffffffffffffffffffffffffffff1673ffffffffffffffffffffffffffffffffffffffff16815260200190815260200160002060008673ffffffffffffffffffffffffffffffffffffffff1673ffffffffffffffffffffffffffffffffffffffff1681526020019081526020016000205461117990919063ffffffff16565b600160003373ffffffffffffffffffffffffffffffffffffffff1673ffffffffffffffffffffffffffffffffffffffff16815260200190815260200160002060008573ffffffffffffffffffffffffffffffffffffffff1673ffffffffffffffffffffffffffffffffffffffff168152602001908152602001600020819055508273ffffffffffffffffffffffffffffffffffffffff163373ffffffffffffffffffffffffffffffffffffffff167f8c5be1e5ebec7d5bd14f71427d1e84f3dd0314c0f7b2291e5b200ac8c7c3b925600160003373ffffffffffffffffffffffffffffffffffffffff1673ffffffffffffffffffffffffffffffffffffffff16815260200190815260200160002060008773ffffffffffffffffffffffffffffffffffffffff1673ffffffffffffffffffffffffffffffffffffffff168152602001908152602001600020546040518082815260200191505060405180910390a36001905092915050565b60006110cb33848461119b565b6001905092915050565b60006110eb82600361159090919063ffffffff16565b9050919050565b6000600160008473ffffffffffffffffffffffffffffffffffffffff1673ffffffffffffffffffffffffffffffffffffffff16815260200190815260200160002060008373ffffffffffffffffffffffffffffffffffffffff1673ffffffffffffffffffffffffffffffffffffffff16815260200190815260200160002054905092915050565b600082821115151561118a57600080fd5b600082840390508091505092915050565b600073ffffffffffffffffffffffffffffffffffffffff168273ffffffffffffffffffffffffffffffffffffffff16141515156111d757600080fd5b611228816000808673ffffffffffffffffffffffffffffffffffffffff1673ffffffffffffffffffffffffffffffffffffffff1681526020019081526020016000205461117990919063ffffffff16565b6000808573ffffffffffffffffffffffffffffffffffffffff1673ffffffffffffffffffffffffffffffffffffffff168152602001908152602001600020819055506112bb816000808573ffffffffffffffffffffffffffffffffffffffff1673ffffffffffffffffffffffffffffffffffffffff1681526020019081526020016000205461136790919063ffffffff16565b6000808473ffffffffffffffffffffffffffffffffffffffff1673ffffffffffffffffffffffffffffffffffffffff168152602001908152602001600020819055508173ffffffffffffffffffffffffffffffffffffffff168373ffffffffffffffffffffffffffffffffffffffff167fddf252ad1be2c89b69c2b068fc378daa952ba7f163c4a11628f55a4df523b3ef836040518082815260200191505060405180910390a3505050565b600080828401905083811015151561137e57600080fd5b8091505092915050565b600073ffffffffffffffffffffffffffffffffffffffff168273ffffffffffffffffffffffffffffffffffffffff16141515156113c457600080fd5b6113d98160025461136790919063ffffffff16565b600281905550611430816000808573ffffffffffffffffffffffffffffffffffffffff1673ffffffffffffffffffffffffffffffffffffffff1681526020019081526020016000205461136790919063ffffffff16565b6000808473ffffffffffffffffffffffffffffffffffffffff1673ffffffffffffffffffffffffffffffffffffffff168152602001908152602001600020819055508173ffffffffffffffffffffffffffffffffffffffff16600073ffffffffffffffffffffffffffffffffffffffff167fddf252ad1be2c89b69c2b068fc378daa952ba7f163c4a11628f55a4df523b3ef836040518082815260200191505060405180910390a35050565b6114f081600361162490919063ffffffff16565b8073ffffffffffffffffffffffffffffffffffffffff167f6ae172837ea30b801fbfcdd4108aa1d5bf8ff775444fd70256b44e6bf3dfc3f660405160405180910390a250565b61154a8160036116d490919063ffffffff16565b8073ffffffffffffffffffffffffffffffffffffffff167fe94479a9f7e1952cc78f2d6baab678adc1b772d936c6583def489e524cb6669260405160405180910390a250565b60008073ffffffffffffffffffffffffffffffffffffffff168273ffffffffffffffffffffffffffffffffffffffff16141515156115cd57600080fd5b8260000160008373ffffffffffffffffffffffffffffffffffffffff1673ffffffffffffffffffffffffffffffffffffffff16815260200190815260200160002060009054906101000a900460ff16905092915050565b600073ffffffffffffffffffffffffffffffffffffffff168173ffffffffffffffffffffffffffffffffffffffff161415151561166057600080fd5b61166a8282611590565b15151561167657600080fd5b60018260000160008373ffffffffffffffffffffffffffffffffffffffff1673ffffffffffffffffffffffffffffffffffffffff16815260200190815260200160002060006101000a81548160ff0219169083151502179055505050565b600073ffffffffffffffffffffffffffffffffffffffff168173ffffffffffffffffffffffffffffffffffffffff161415151561171057600080fd5b61171a8282611590565b151561172557600080fd5b60008260000160008373ffffffffffffffffffffffffffffffffffffffff1673ffffffffffffffffffffffffffffffffffffffff16815260200190815260200160002060006101000a81548160ff021916908315150217905550505056fea165627a7a72305820deac98becb40aa8faa6263878a8749d93ffda1c474368c92c8aa178de1efc5ee0029",
  "source": "pragma solidity >=0.5.0;\r\n\r\nimport \"../node_modules/openzeppelin-solidity/contracts/token/ERC20/ERC20.sol\";\r\nimport \"../node_modules/openzeppelin-solidity/contracts/token/ERC20/ERC20Mintable.sol\";\r\n\r\n/// @title Cubit\r\ncontract Cubit is ERC20, ERC20Mintable{\r\n\r\n    string public name = \"Cubit\";\r\n    string public symbol = \"CUB\";\r\n    uint8 public decimals = 2;\r\n    uint public INITIAL_SUPPLY = 0;\r\n\r\n    /**\r\n    * @dev Mints INITIAL_SUPPLY cubits and gives them to the user who calls this function\r\n    */\r\n    constructor() public {\r\n        _mint(msg.sender, INITIAL_SUPPLY);\r\n    }\r\n}\r\n\r\n",
  "sourcePath": "E:\\Università\\Soldino-PoC\\contracts\\Cubit.sol",
  "compiler": {
    "name": "solc",
    "version": "0.5.0+commit.1d4f565a.Emscripten.clang"
  },
  "schemaVersion": "3.0.1",
  "updatedAt": "2019-03-03T19:05:09.758Z",
  "devdoc": {
    "methods": {
      "allowance(address,address)": {
        "details": "Function to check the amount of tokens that an owner allowed to a spender.",
        "params": {
          "owner": "address The address which owns the funds.",
          "spender": "address The address which will spend the funds."
        },
        "return": "A uint256 specifying the amount of tokens still available for the spender."
      },
      "approve(address,uint256)": {
        "details": "Approve the passed address to spend the specified amount of tokens on behalf of msg.sender. Beware that changing an allowance with this method brings the risk that someone may use both the old and the new allowance by unfortunate transaction ordering. One possible solution to mitigate this race condition is to first reduce the spender's allowance to 0 and set the desired value afterwards: https://github.com/ethereum/EIPs/issues/20#issuecomment-263524729",
        "params": {
          "spender": "The address which will spend the funds.",
          "value": "The amount of tokens to be spent."
        }
      },
      "balanceOf(address)": {
        "details": "Gets the balance of the specified address.",
        "params": {
          "owner": "The address to query the balance of."
        },
        "return": "An uint256 representing the amount owned by the passed address."
      },
      "constructor": {
        "details": "Mints INITIAL_SUPPLY cubits and gives them to the user who calls this function\r"
      },
      "decreaseAllowance(address,uint256)": {
        "details": "Decrease the amount of tokens that an owner allowed to a spender. approve should be called when allowed_[_spender] == 0. To decrement allowed value is better to use this function to avoid 2 calls (and wait until the first transaction is mined) From MonolithDAO Token.sol Emits an Approval event.",
        "params": {
          "spender": "The address which will spend the funds.",
          "subtractedValue": "The amount of tokens to decrease the allowance by."
        }
      },
      "increaseAllowance(address,uint256)": {
        "details": "Increase the amount of tokens that an owner allowed to a spender. approve should be called when allowed_[_spender] == 0. To increment allowed value is better to use this function to avoid 2 calls (and wait until the first transaction is mined) From MonolithDAO Token.sol Emits an Approval event.",
        "params": {
          "addedValue": "The amount of tokens to increase the allowance by.",
          "spender": "The address which will spend the funds."
        }
      },
      "mint(address,uint256)": {
        "details": "Function to mint tokens",
        "params": {
          "to": "The address that will receive the minted tokens.",
          "value": "The amount of tokens to mint."
        },
        "return": "A boolean that indicates if the operation was successful."
      },
      "totalSupply()": {
        "details": "Total number of tokens in existence"
      },
      "transfer(address,uint256)": {
        "details": "Transfer token for a specified address",
        "params": {
          "to": "The address to transfer to.",
          "value": "The amount to be transferred."
        }
      },
      "transferFrom(address,address,uint256)": {
        "details": "Transfer tokens from one address to another. Note that while this function emits an Approval event, this is not required as per the specification, and other compliant implementations may not emit the event.",
        "params": {
          "from": "address The address which you want to send tokens from",
          "to": "address The address which you want to transfer to",
          "value": "uint256 the amount of tokens to be transferred"
        }
      }
    },
    "title": "Cubit"
  },
  "userdoc": {
    "methods": {}
  }
}