{
  "contractName": "Government",
  "abi": [
    {
      "inputs": [
        {
          "name": "_manager",
          "type": "address"
        }
      ],
      "payable": false,
      "stateMutability": "nonpayable",
      "type": "constructor",
      "signature": "constructor"
    },
    {
      "constant": true,
      "inputs": [
        {
          "name": "_user",
          "type": "address"
        }
      ],
      "name": "isGovernment",
      "outputs": [
        {
          "name": "",
          "type": "bool"
        }
      ],
      "payable": false,
      "stateMutability": "view",
      "type": "function",
      "signature": "0x6c2b04fd"
    },
    {
      "constant": false,
      "inputs": [
        {
          "name": "_to",
          "type": "address[]"
        },
        {
          "name": "_amount",
          "type": "uint256"
        }
      ],
      "name": "distributeToUsers",
      "outputs": [],
      "payable": false,
      "stateMutability": "nonpayable",
      "type": "function",
      "signature": "0xee7cdfc0"
    },
    {
      "constant": false,
      "inputs": [
        {
          "name": "_amount",
          "type": "uint256"
        }
      ],
      "name": "distributeToAll",
      "outputs": [],
      "payable": false,
      "stateMutability": "nonpayable",
      "type": "function",
      "signature": "0xe284f217"
    }
  ],
  "bytecode": "0x608060405234801561001057600080fd5b50604051602080610f1f8339810180604052602081101561003057600080fd5b810190808051906020019092919050505080600160006101000a81548173ffffffffffffffffffffffffffffffffffffffff021916908373ffffffffffffffffffffffffffffffffffffffff160217905550600160009054906101000a900473ffffffffffffffffffffffffffffffffffffffff1673ffffffffffffffffffffffffffffffffffffffff166381b4690d6040518163ffffffff167c010000000000000000000000000000000000000000000000000000000002815260040160206040518083038186803b15801561010657600080fd5b505afa15801561011a573d6000803e3d6000fd5b505050506040513d602081101561013057600080fd5b81019080805190602001909291905050506000806101000a81548173ffffffffffffffffffffffffffffffffffffffff021916908373ffffffffffffffffffffffffffffffffffffffff16021790555050610d8f806101906000396000f3fe608060405260043610610057576000357c0100000000000000000000000000000000000000000000000000000000900463ffffffff1680636c2b04fd1461005c578063e284f217146100c5578063ee7cdfc014610100575b600080fd5b34801561006857600080fd5b506100ab6004803603602081101561007f57600080fd5b81019080803573ffffffffffffffffffffffffffffffffffffffff1690602001909291905050506101cf565b604051808215151515815260200191505060405180910390f35b3480156100d157600080fd5b506100fe600480360360208110156100e857600080fd5b8101908080359060200190929190505050610228565b005b34801561010c57600080fd5b506101cd6004803603604081101561012357600080fd5b810190808035906020019064010000000081111561014057600080fd5b82018360208201111561015257600080fd5b8035906020019184602083028401116401000000008311171561017457600080fd5b919080806020026020016040519081016040528093929190818152602001838360200280828437600081840152601f19601f8201169050808301925050505050505091929192908035906020019092919050505061087d565b005b60008173ffffffffffffffffffffffffffffffffffffffff166000809054906101000a900473ffffffffffffffffffffffffffffffffffffffff1673ffffffffffffffffffffffffffffffffffffffff16149050919050565b3373ffffffffffffffffffffffffffffffffffffffff166000809054906101000a900473ffffffffffffffffffffffffffffffffffffffff1673ffffffffffffffffffffffffffffffffffffffff161415156102ec576040517f08c379a00000000000000000000000000000000000000000000000000000000081526004018080602001828103825260198152602001807f4e6f742061207265676973746572656420636974697a656e210000000000000081525060200191505060405180910390fd5b6060600160009054906101000a900473ffffffffffffffffffffffffffffffffffffffff1673ffffffffffffffffffffffffffffffffffffffff16636a76779f6040518163ffffffff167c010000000000000000000000000000000000000000000000000000000002815260040160206040518083038186803b15801561037257600080fd5b505afa158015610386573d6000803e3d6000fd5b505050506040513d602081101561039c57600080fd5b810190808051906020019092919050505073ffffffffffffffffffffffffffffffffffffffff16636c0e1ccd6040518163ffffffff167c010000000000000000000000000000000000000000000000000000000002815260040160006040518083038186803b15801561040e57600080fd5b505afa158015610422573d6000803e3d6000fd5b505050506040513d6000823e3d601f19601f82011682018060405250602081101561044c57600080fd5b81019080805164010000000081111561046457600080fd5b8281019050602081018481111561047a57600080fd5b815185602082028301116401000000008211171561049757600080fd5b505092919050505090506060600160009054906101000a900473ffffffffffffffffffffffffffffffffffffffff1673ffffffffffffffffffffffffffffffffffffffff166308edb9b36040518163ffffffff167c010000000000000000000000000000000000000000000000000000000002815260040160206040518083038186803b15801561052757600080fd5b505afa15801561053b573d6000803e3d6000fd5b505050506040513d602081101561055157600080fd5b810190808051906020019092919050505073ffffffffffffffffffffffffffffffffffffffff1663bb4a7f186040518163ffffffff167c010000000000000000000000000000000000000000000000000000000002815260040160006040518083038186803b1580156105c357600080fd5b505afa1580156105d7573d6000803e3d6000fd5b505050506040513d6000823e3d601f19601f82011682018060405250602081101561060157600080fd5b81019080805164010000000081111561061957600080fd5b8281019050602081018481111561062f57600080fd5b815185602082028301116401000000008211171561064c57600080fd5b50509291905050509050600160009054906101000a900473ffffffffffffffffffffffffffffffffffffffff1673ffffffffffffffffffffffffffffffffffffffff1663f03888be6040518163ffffffff167c010000000000000000000000000000000000000000000000000000000002815260040160206040518083038186803b1580156106da57600080fd5b505afa1580156106ee573d6000803e3d6000fd5b505050506040513d602081101561070457600080fd5b810190808051906020019092919050505073ffffffffffffffffffffffffffffffffffffffff166370a08231336040518263ffffffff167c0100000000000000000000000000000000000000000000000000000000028152600401808273ffffffffffffffffffffffffffffffffffffffff1673ffffffffffffffffffffffffffffffffffffffff16815260200191505060206040518083038186803b1580156107ad57600080fd5b505afa1580156107c1573d6000803e3d6000fd5b505050506040513d60208110156107d757600080fd5b810190808051906020019092919050505083825184510102101515610864576040517f08c379a00000000000000000000000000000000000000000000000000000000081526004018080602001828103825260118152602001807f4e6f7420656e6f75676820746f6b656e7300000000000000000000000000000081525060200191505060405180910390fd5b61086e8284610b5a565b6108788184610b5a565b505050565b3373ffffffffffffffffffffffffffffffffffffffff166000809054906101000a900473ffffffffffffffffffffffffffffffffffffffff1673ffffffffffffffffffffffffffffffffffffffff16141515610941576040517f08c379a00000000000000000000000000000000000000000000000000000000081526004018080602001828103825260198152602001807f4e6f742061207265676973746572656420636974697a656e210000000000000081525060200191505060405180910390fd5b600160009054906101000a900473ffffffffffffffffffffffffffffffffffffffff1673ffffffffffffffffffffffffffffffffffffffff1663f03888be6040518163ffffffff167c010000000000000000000000000000000000000000000000000000000002815260040160206040518083038186803b1580156109c557600080fd5b505afa1580156109d9573d6000803e3d6000fd5b505050506040513d60208110156109ef57600080fd5b810190808051906020019092919050505073ffffffffffffffffffffffffffffffffffffffff166370a08231336040518263ffffffff167c0100000000000000000000000000000000000000000000000000000000028152600401808273ffffffffffffffffffffffffffffffffffffffff1673ffffffffffffffffffffffffffffffffffffffff16815260200191505060206040518083038186803b158015610a9857600080fd5b505afa158015610aac573d6000803e3d6000fd5b505050506040513d6020811015610ac257600080fd5b810190808051906020019092919050505081835102101515610b4c576040517f08c379a00000000000000000000000000000000000000000000000000000000081526004018080602001828103825260118152602001807f4e6f7420656e6f75676820746f6b656e7300000000000000000000000000000081525060200191505060405180910390fd5b610b568282610b5a565b5050565b60008090505b8251811015610d5e57600160009054906101000a900473ffffffffffffffffffffffffffffffffffffffff1673ffffffffffffffffffffffffffffffffffffffff1663f03888be6040518163ffffffff167c010000000000000000000000000000000000000000000000000000000002815260040160206040518083038186803b158015610bed57600080fd5b505afa158015610c01573d6000803e3d6000fd5b505050506040513d6020811015610c1757600080fd5b810190808051906020019092919050505073ffffffffffffffffffffffffffffffffffffffff166323b872dd338584815181101515610c5257fe5b90602001906020020151856040518463ffffffff167c0100000000000000000000000000000000000000000000000000000000028152600401808473ffffffffffffffffffffffffffffffffffffffff1673ffffffffffffffffffffffffffffffffffffffff1681526020018373ffffffffffffffffffffffffffffffffffffffff1673ffffffffffffffffffffffffffffffffffffffff1681526020018281526020019350505050602060405180830381600087803b158015610d1557600080fd5b505af1158015610d29573d6000803e3d6000fd5b505050506040513d6020811015610d3f57600080fd5b8101908080519060200190929190505050508080600101915050610b60565b50505056fea165627a7a72305820977eac12d164c70571d3a01b8859c99aa8ea35341f82cf94746cc7cdeb0b3e020029",
  "source": "pragma solidity >=0.5.0;\r\n\r\nimport \"./ContractManager.sol\";\r\nimport \"./Citizen.sol\";\r\nimport \"./Cubit.sol\";\r\nimport \"./BusinessOwner.sol\";\r\n\r\n/// @title Government\r\ncontract Government {\r\n\r\n    address governmentAddress;\r\n    ContractManager manager;\r\n\r\n    /**\r\n    * @dev Sets the correct instance of ContractManager so that the contract may be able to call functions from other\r\n    *      contracts\r\n    * @param _manager The address of the instance of ContractManager\r\n    */\r\n    constructor(ContractManager _manager) public {\r\n        manager = _manager;\r\n        governmentAddress = manager.getGovernment();\r\n    }\r\n\r\n    /**\r\n    * @dev Checks if the user who calls this function is the government\r\n    */\r\n    modifier onlyGovernment {\r\n        require(governmentAddress == msg.sender, \"Not a registered citizen!\");\r\n        _;\r\n    }\r\n\r\n    /**\r\n    * @dev Returns true if the given user is the government\r\n    * @param _user The address of the user to check\r\n    */\r\n    function isGovernment(address _user) public view returns(bool) {\r\n        return governmentAddress == _user;\r\n    }\r\n\r\n    /**\r\n    * @dev Allows the government to distribute cubits to a specific set of users\r\n    * @param _to An array containing the addresses of the users to whom send cubits\r\n    * @param _amount the amount of cubits to give to EACH of the users\r\n    */\r\n    function distributeToUsers(address[] memory _to, uint256 _amount) onlyGovernment public {\r\n        require((_to.length * _amount < Cubit(manager.getCubitContract()).balanceOf(msg.sender)), \"Not enough tokens\");\r\n        _distribute(_to, _amount);\r\n    }\r\n\r\n    /**\r\n    * @dev Allows the government to distribute cubits to all citizens and business owners registered in the system\r\n    * @param _amount the amount of cubits to give to EACH of the users\r\n    */\r\n    function distributeToAll(uint _amount) public onlyGovernment {\r\n        address[] memory toCitizens = Citizen(manager.getCitizenContract()).getAllCitizens();\r\n        address[] memory toBusinessOwners = BusinessOwner(manager.getBusinessOwnerContract()).getAllBusinessOwners();\r\n        require((toCitizens.length + toBusinessOwners.length) * _amount < Cubit(manager.getCubitContract()).balanceOf(msg.sender), \"Not enough tokens\");\r\n\r\n        _distribute(toCitizens, _amount);\r\n        _distribute(toBusinessOwners, _amount);\r\n    }\r\n\r\n    /**\r\n    * @dev Private function that tries to distribute money to a specific set of users (no requires are used)\r\n    * @param _to An array containing the addresses of the users to whom send cubits\r\n    * @param _amount the amount of cubits to give to EACH of the users\r\n    */\r\n    function _distribute(address[] memory _to, uint256 _amount) private  {\r\n        //Cubit(manager.getCubitContract()).increaseAllowance(address(this), 1000); //necessario aumentare l'allowance da js\r\n        for(uint i = 0; i <  _to.length; i++){\r\n            Cubit(manager.getCubitContract()).transferFrom(msg.sender, _to[i], _amount);\r\n        }\r\n    }\r\n}\r\n",
  "sourcePath": "E:\\Università\\Soldino-PoC\\contracts\\Government.sol",
  "compiler": {
    "name": "solc",
    "version": "0.5.0+commit.1d4f565a.Emscripten.clang"
  },
  "schemaVersion": "3.0.1",
  "updatedAt": "2019-03-03T19:05:09.783Z",
  "devdoc": {
    "methods": {
      "constructor": {
        "details": "Sets the correct instance of ContractManager so that the contract may be able to call functions from other\r     contracts\r",
        "params": {
          "_manager": "The address of the instance of ContractManager\r"
        }
      },
      "distributeToAll(uint256)": {
        "details": "Allows the government to distribute cubits to all citizens and business owners registered in the system\r",
        "params": {
          "_amount": "the amount of cubits to give to EACH of the users\r"
        }
      },
      "distributeToUsers(address[],uint256)": {
        "details": "Allows the government to distribute cubits to a specific set of users\r",
        "params": {
          "_amount": "the amount of cubits to give to EACH of the users\r",
          "_to": "An array containing the addresses of the users to whom send cubits\r"
        }
      },
      "isGovernment(address)": {
        "details": "Returns true if the given user is the government\r",
        "params": {
          "_user": "The address of the user to check\r"
        }
      }
    },
    "title": "Government"
  },
  "userdoc": {
    "methods": {}
  }
}