{
  "contractName": "Product",
  "abi": [
    {
      "inputs": [
        {
          "name": "_manager",
          "type": "address"
        }
      ],
      "payable": false,
      "stateMutability": "nonpayable",
      "type": "constructor",
      "signature": "constructor"
    },
    {
      "constant": false,
      "inputs": [
        {
          "name": "_name",
          "type": "bytes32"
        },
        {
          "name": "_price",
          "type": "uint256"
        },
        {
          "name": "_availability",
          "type": "uint256"
        },
        {
          "name": "_VAT",
          "type": "uint256"
        }
      ],
      "name": "addProduct",
      "outputs": [],
      "payable": false,
      "stateMutability": "nonpayable",
      "type": "function",
      "signature": "0x4bee4261"
    },
    {
      "constant": false,
      "inputs": [
        {
          "name": "_productId",
          "type": "uint256"
        },
        {
          "name": "_amount",
          "type": "uint256"
        }
      ],
      "name": "buyProduct",
      "outputs": [],
      "payable": false,
      "stateMutability": "nonpayable",
      "type": "function",
      "signature": "0x53b62866"
    },
    {
      "constant": false,
      "inputs": [
        {
          "name": "_productId",
          "type": "uint256"
        },
        {
          "name": "_name",
          "type": "bytes32"
        }
      ],
      "name": "updateProductName",
      "outputs": [],
      "payable": false,
      "stateMutability": "nonpayable",
      "type": "function",
      "signature": "0x4338caef"
    },
    {
      "constant": false,
      "inputs": [
        {
          "name": "_productId",
          "type": "uint256"
        },
        {
          "name": "_price",
          "type": "uint256"
        }
      ],
      "name": "updateProductPrice",
      "outputs": [],
      "payable": false,
      "stateMutability": "nonpayable",
      "type": "function",
      "signature": "0x9c3bddb2"
    },
    {
      "constant": false,
      "inputs": [
        {
          "name": "_productId",
          "type": "uint256"
        },
        {
          "name": "_availability",
          "type": "uint256"
        }
      ],
      "name": "updateProductAvailability",
      "outputs": [],
      "payable": false,
      "stateMutability": "nonpayable",
      "type": "function",
      "signature": "0xddbeadf9"
    },
    {
      "constant": false,
      "inputs": [
        {
          "name": "_productId",
          "type": "uint256"
        },
        {
          "name": "_VAT",
          "type": "uint256"
        }
      ],
      "name": "updateProductVAT",
      "outputs": [],
      "payable": false,
      "stateMutability": "nonpayable",
      "type": "function",
      "signature": "0xd6c480a8"
    }
  ],
  "bytecode": "0x608060405234801561001057600080fd5b506040516020806115f18339810180604052602081101561003057600080fd5b810190808051906020019092919050505080600360006101000a81548173ffffffffffffffffffffffffffffffffffffffff021916908373ffffffffffffffffffffffffffffffffffffffff1602179055506000808190555050611558806100996000396000f3fe608060405260043610610078576000357c0100000000000000000000000000000000000000000000000000000000900463ffffffff1680634338caef1461007d5780634bee4261146100c257806353b628661461011b5780639c3bddb214610160578063d6c480a8146101a5578063ddbeadf9146101ea575b600080fd5b34801561008957600080fd5b506100c0600480360360408110156100a057600080fd5b81019080803590602001909291908035906020019092919050505061022f565b005b3480156100ce57600080fd5b50610119600480360360808110156100e557600080fd5b81019080803590602001909291908035906020019092919080359060200190929190803590602001909291905050506104a0565b005b34801561012757600080fd5b5061015e6004803603604081101561013e57600080fd5b8101908080359060200190929190803590602001909291905050506107f8565b005b34801561016c57600080fd5b506101a36004803603604081101561018357600080fd5b810190808035906020019092919080359060200190929190505050610d90565b005b3480156101b157600080fd5b506101e8600480360360408110156101c857600080fd5b810190808035906020019092919080359060200190929190505050611001565b005b3480156101f657600080fd5b5061022d6004803603604081101561020d57600080fd5b810190808035906020019092919080359060200190929190505050611272565b005b336000600360009054906101000a900473ffffffffffffffffffffffffffffffffffffffff1673ffffffffffffffffffffffffffffffffffffffff16630e8bab7d6040518163ffffffff167c010000000000000000000000000000000000000000000000000000000002815260040160206040518083038186803b1580156102b657600080fd5b505afa1580156102ca573d6000803e3d6000fd5b505050506040513d60208110156102e057600080fd5b8101908080519060200190929190505050905060028173ffffffffffffffffffffffffffffffffffffffff1663c3c5a547846040518263ffffffff167c0100000000000000000000000000000000000000000000000000000000028152600401808273ffffffffffffffffffffffffffffffffffffffff1673ffffffffffffffffffffffffffffffffffffffff16815260200191505060206040518083038186803b15801561038e57600080fd5b505afa1580156103a2573d6000803e3d6000fd5b505050506040513d60208110156103b857600080fd5b810190808051906020019092919050505060038111156103d457fe5b148061040b57503073ffffffffffffffffffffffffffffffffffffffff168273ffffffffffffffffffffffffffffffffffffffff16145b151561047f576040517f08c379a00000000000000000000000000000000000000000000000000000000081526004018080602001828103825260158152602001807f4e6f74206120627573696e657373206f776e657221000000000000000000000081525060200191505060405180910390fd5b82600260008681526020019081526020016000206000018190555050505050565b336000600360009054906101000a900473ffffffffffffffffffffffffffffffffffffffff1673ffffffffffffffffffffffffffffffffffffffff16630e8bab7d6040518163ffffffff167c010000000000000000000000000000000000000000000000000000000002815260040160206040518083038186803b15801561052757600080fd5b505afa15801561053b573d6000803e3d6000fd5b505050506040513d602081101561055157600080fd5b8101908080519060200190929190505050905060028173ffffffffffffffffffffffffffffffffffffffff1663c3c5a547846040518263ffffffff167c0100000000000000000000000000000000000000000000000000000000028152600401808273ffffffffffffffffffffffffffffffffffffffff1673ffffffffffffffffffffffffffffffffffffffff16815260200191505060206040518083038186803b1580156105ff57600080fd5b505afa158015610613573d6000803e3d6000fd5b505050506040513d602081101561062957600080fd5b8101908080519060200190929190505050600381111561064557fe5b148061067c57503073ffffffffffffffffffffffffffffffffffffffff168273ffffffffffffffffffffffffffffffffffffffff16145b15156106f0576040517f08c379a00000000000000000000000000000000000000000000000000000000081526004018080602001828103825260158152602001807f4e6f74206120627573696e657373206f776e657221000000000000000000000081525060200191505060405180910390fd5b856002600080548152602001908152602001600020600001819055508460026000805481526020019081526020016000206001018190555033600260008054815260200190815260200160002060020160006101000a81548173ffffffffffffffffffffffffffffffffffffffff021916908373ffffffffffffffffffffffffffffffffffffffff160217905550836002600080548152602001908152602001600020600301819055508260026000805481526020019081526020016000206004018190555060016000549080600181540180825580915050906001820390600052602060002001600090919290919091505550600160005401600081905550505050505050565b336000600360009054906101000a900473ffffffffffffffffffffffffffffffffffffffff1673ffffffffffffffffffffffffffffffffffffffff16630e8bab7d6040518163ffffffff167c010000000000000000000000000000000000000000000000000000000002815260040160206040518083038186803b15801561087f57600080fd5b505afa158015610893573d6000803e3d6000fd5b505050506040513d60208110156108a957600080fd5b8101908080519060200190929190505050905060008173ffffffffffffffffffffffffffffffffffffffff1663c3c5a547846040518263ffffffff167c0100000000000000000000000000000000000000000000000000000000028152600401808273ffffffffffffffffffffffffffffffffffffffff1673ffffffffffffffffffffffffffffffffffffffff16815260200191505060206040518083038186803b15801561095757600080fd5b505afa15801561096b573d6000803e3d6000fd5b505050506040513d602081101561098157600080fd5b8101908080519060200190929190505050600381111561099d57fe5b905060018114806109ae5750600281145b1515610a22576040517f08c379a00000000000000000000000000000000000000000000000000000000081526004018080602001828103825260168152602001807f4e6f74206120726567697374657265642075736572210000000000000000000081525060200191505060405180910390fd5b84610a2b6114e3565b6002600083815260200190815260200160002060a0604051908101604052908160008201548152602001600182015481526020016002820160009054906101000a900473ffffffffffffffffffffffffffffffffffffffff1673ffffffffffffffffffffffffffffffffffffffff1673ffffffffffffffffffffffffffffffffffffffff1681526020016003820154815260200160048201548152505090506000600102816000015114151515610ae157600080fd5b610ae96114e3565b6002600089815260200190815260200160002060a0604051908101604052908160008201548152602001600182015481526020016002820160009054906101000a900473ffffffffffffffffffffffffffffffffffffffff1673ffffffffffffffffffffffffffffffffffffffff1673ffffffffffffffffffffffffffffffffffffffff16815260200160038201548152602001600482015481525050905086816060015110151515610b9b57600080fd5b600360009054906101000a900473ffffffffffffffffffffffffffffffffffffffff1673ffffffffffffffffffffffffffffffffffffffff1663f03888be6040518163ffffffff167c010000000000000000000000000000000000000000000000000000000002815260040160206040518083038186803b158015610c1f57600080fd5b505afa158015610c33573d6000803e3d6000fd5b505050506040513d6020811015610c4957600080fd5b810190808051906020019092919050505073ffffffffffffffffffffffffffffffffffffffff166323b872dd33836040015184602001518b026040518463ffffffff167c0100000000000000000000000000000000000000000000000000000000028152600401808473ffffffffffffffffffffffffffffffffffffffff1673ffffffffffffffffffffffffffffffffffffffff1681526020018373ffffffffffffffffffffffffffffffffffffffff1673ffffffffffffffffffffffffffffffffffffffff1681526020018281526020019350505050602060405180830381600087803b158015610d3a57600080fd5b505af1158015610d4e573d6000803e3d6000fd5b505050506040513d6020811015610d6457600080fd5b810190808051906020019092919050505050610d868888836060015103611272565b5050505050505050565b336000600360009054906101000a900473ffffffffffffffffffffffffffffffffffffffff1673ffffffffffffffffffffffffffffffffffffffff16630e8bab7d6040518163ffffffff167c010000000000000000000000000000000000000000000000000000000002815260040160206040518083038186803b158015610e1757600080fd5b505afa158015610e2b573d6000803e3d6000fd5b505050506040513d6020811015610e4157600080fd5b8101908080519060200190929190505050905060028173ffffffffffffffffffffffffffffffffffffffff1663c3c5a547846040518263ffffffff167c0100000000000000000000000000000000000000000000000000000000028152600401808273ffffffffffffffffffffffffffffffffffffffff1673ffffffffffffffffffffffffffffffffffffffff16815260200191505060206040518083038186803b158015610eef57600080fd5b505afa158015610f03573d6000803e3d6000fd5b505050506040513d6020811015610f1957600080fd5b81019080805190602001909291905050506003811115610f3557fe5b1480610f6c57503073ffffffffffffffffffffffffffffffffffffffff168273ffffffffffffffffffffffffffffffffffffffff16145b1515610fe0576040517f08c379a00000000000000000000000000000000000000000000000000000000081526004018080602001828103825260158152602001807f4e6f74206120627573696e657373206f776e657221000000000000000000000081525060200191505060405180910390fd5b82600260008681526020019081526020016000206001018190555050505050565b336000600360009054906101000a900473ffffffffffffffffffffffffffffffffffffffff1673ffffffffffffffffffffffffffffffffffffffff16630e8bab7d6040518163ffffffff167c010000000000000000000000000000000000000000000000000000000002815260040160206040518083038186803b15801561108857600080fd5b505afa15801561109c573d6000803e3d6000fd5b505050506040513d60208110156110b257600080fd5b8101908080519060200190929190505050905060028173ffffffffffffffffffffffffffffffffffffffff1663c3c5a547846040518263ffffffff167c0100000000000000000000000000000000000000000000000000000000028152600401808273ffffffffffffffffffffffffffffffffffffffff1673ffffffffffffffffffffffffffffffffffffffff16815260200191505060206040518083038186803b15801561116057600080fd5b505afa158015611174573d6000803e3d6000fd5b505050506040513d602081101561118a57600080fd5b810190808051906020019092919050505060038111156111a657fe5b14806111dd57503073ffffffffffffffffffffffffffffffffffffffff168273ffffffffffffffffffffffffffffffffffffffff16145b1515611251576040517f08c379a00000000000000000000000000000000000000000000000000000000081526004018080602001828103825260158152602001807f4e6f74206120627573696e657373206f776e657221000000000000000000000081525060200191505060405180910390fd5b82600260008681526020019081526020016000206004018190555050505050565b336000600360009054906101000a900473ffffffffffffffffffffffffffffffffffffffff1673ffffffffffffffffffffffffffffffffffffffff16630e8bab7d6040518163ffffffff167c010000000000000000000000000000000000000000000000000000000002815260040160206040518083038186803b1580156112f957600080fd5b505afa15801561130d573d6000803e3d6000fd5b505050506040513d602081101561132357600080fd5b8101908080519060200190929190505050905060028173ffffffffffffffffffffffffffffffffffffffff1663c3c5a547846040518263ffffffff167c0100000000000000000000000000000000000000000000000000000000028152600401808273ffffffffffffffffffffffffffffffffffffffff1673ffffffffffffffffffffffffffffffffffffffff16815260200191505060206040518083038186803b1580156113d157600080fd5b505afa1580156113e5573d6000803e3d6000fd5b505050506040513d60208110156113fb57600080fd5b8101908080519060200190929190505050600381111561141757fe5b148061144e57503073ffffffffffffffffffffffffffffffffffffffff168273ffffffffffffffffffffffffffffffffffffffff16145b15156114c2576040517f08c379a00000000000000000000000000000000000000000000000000000000081526004018080602001828103825260158152602001807f4e6f74206120627573696e657373206f776e657221000000000000000000000081525060200191505060405180910390fd5b82600260008681526020019081526020016000206003018190555050505050565b60a0604051908101604052806000801916815260200160008152602001600073ffffffffffffffffffffffffffffffffffffffff1681526020016000815260200160008152509056fea165627a7a72305820a70c741dc09082372633a74d8a9979a201b1f4dc16e9871baa3c89443ec134fd0029",
  "source": "pragma solidity >=0.5.0;\r\n\r\nimport \"./ContractManager.sol\";\r\nimport \"./Authentication.sol\";\r\nimport \"./Cubit.sol\";\r\n\r\ncontract Product {\r\n\r\n    struct product {\r\n        bytes32 name;\r\n        uint price;\r\n        address owner;\r\n        uint availability;\r\n        uint VAT;\r\n    }\r\n\r\n    uint nextProduct;\r\n    uint[] products;\r\n    mapping(uint => product) productData;\r\n    ContractManager manager;\r\n\r\n    /**\r\n    * @dev Sets the correct instance of ContractManager so that the contract may be able to call functions from other\r\n    *      contracts\r\n    * @param _manager The address of the instance of ContractManager\r\n    */\r\n    constructor(ContractManager _manager) public {\r\n        manager = _manager;\r\n        nextProduct = 0;\r\n    }\r\n\r\n    /**\r\n    * @dev Checks if the given id identifies a registered product\r\n    * @param _productId The id of the product to check\r\n    */\r\n    modifier onlyValidProductID(uint _productId) {\r\n        product memory tmp = productData[_productId];\r\n        require(tmp.name != 0x0);\r\n        _;\r\n    }\r\n\r\n    /**\r\n    * @dev Checks if a given user is the owner of the given product\r\n    * @param _user The address of the business owner who's supposed to own the product\r\n    * @param _productId The id associated with the product whose owner is to be checked\r\n    */\r\n    modifier onlyProductOwner(address _user, uint _productId) {\r\n        product memory tmp = productData[_productId];\r\n        require(tmp.owner == _user);\r\n        _;\r\n    }\r\n\r\n    /**\r\n    * @dev Checks if a given user is a registered business owner\r\n    * @param _user The address of the user to check\r\n    */\r\n    modifier onlyBusinessOwner(address _user) {\r\n        Authentication auth = Authentication(manager.getAuthenticationContract());\r\n        require((uint(auth.isRegistered(_user)) == 2) || _user == address(this), \"Not a business owner!\");\r\n        _;\r\n    }\r\n\r\n    /**\r\n    * @dev Checks if a given user is a registered business owner\r\n    * @param _user The address of the user to check\r\n    */\r\n    modifier onlyRegisteredUser(address _user) {\r\n        Authentication auth = Authentication(manager.getAuthenticationContract());\r\n        uint userType = uint(auth.isRegistered(_user));\r\n        require(userType == 1 || userType == 2, \"Not a registered user!\");\r\n        _;\r\n    }\r\n\r\n    /**\r\n    * @dev Adds a new product to the system, owned by the business owner who calls the function\r\n    * @param _name The name of the product to add\r\n    * @param _price The price of the product to add\r\n    * @param _availability The availability of the product to add\r\n    * @param _VAT The VAT of the product to add\r\n    */\r\n    function addProduct(bytes32 _name, uint _price, uint _availability, uint _VAT) public onlyBusinessOwner(msg.sender) {\r\n\r\n        productData[nextProduct].name = _name;\r\n        productData[nextProduct].price = _price;\r\n        productData[nextProduct].owner = msg.sender;\r\n        productData[nextProduct].availability = _availability;\r\n        productData[nextProduct].VAT = _VAT;\r\n\r\n        products.push(nextProduct);\r\n        nextProduct = nextProduct + 1;\r\n\r\n    }\r\n\r\n    /**\r\n    * @dev Allows the the registered user who calls the function to buy a certain quantity of a product if it has enough\r\n    *      cubits\r\n    * @param _productId The id of the product to buy\r\n    * @param _amount The amount of products to buy\r\n    */\r\n    function buyProduct(uint _productId, uint _amount) public onlyRegisteredUser(msg.sender)\r\n                                                              onlyValidProductID(_productId) {\r\n        product memory productToBuy = productData[_productId];\r\n        require(productToBuy.availability >= _amount);\r\n        Cubit(manager.getCubitContract()).transferFrom(msg.sender, productToBuy.owner, _amount * productToBuy.price);\r\n        updateProductAvailability(_productId, productToBuy.availability - _amount);\r\n    }\r\n\r\n    /**\r\n    * @dev Function used by the owner of a product and this contract in order to change the name of a product\r\n    * @param _productId The id of the product whose name to change\r\n    * @param _name The new name of the product\r\n    */\r\n    function updateProductName(uint _productId, bytes32 _name) onlyBusinessOwner(msg.sender) public {\r\n        productData[_productId].name = _name;\r\n    }\r\n\r\n    /**\r\n    * @dev Function used by the owner of a product and this contract in order to change the price of a product\r\n    * @param _productId The id of the product whose name to change\r\n    * @param _price The new price of the product\r\n    */\r\n    function updateProductPrice(uint _productId, uint _price) onlyBusinessOwner(msg.sender) public {\r\n        productData[_productId].price = _price;\r\n    }\r\n\r\n    /**\r\n    * @dev Function used by the owner of a product and this contract in order to change the availability of a product\r\n    * @param _productId The id of the product whose name to change\r\n    * @param _availability The new availability of the product\r\n    */\r\n    function updateProductAvailability(uint _productId, uint _availability) onlyBusinessOwner(msg.sender) public {\r\n        productData[_productId].availability = _availability;\r\n    }\r\n\r\n    /**\r\n    * @dev Function used by the owner of a product and this contract in order to change the availability of a product\r\n    * @param _productId The id of the product whose name to change\r\n    * @param _VAT The new VAT of the product\r\n    */\r\n    function updateProductVAT(uint _productId, uint _VAT) onlyBusinessOwner(msg.sender) public {\r\n        productData[_productId].VAT = _VAT;\r\n    }\r\n}\r\n",
  "sourcePath": "E:/Università/Soldino-PoC/contracts/Product.sol",
  "compiler": {
    "name": "solc",
    "version": "0.5.0+commit.1d4f565a.Emscripten.clang"
  },
  "schemaVersion": "3.0.1",
  "updatedAt": "2019-03-03T19:05:09.790Z",
  "devdoc": {
    "methods": {
      "addProduct(bytes32,uint256,uint256,uint256)": {
        "details": "Adds a new product to the system, owned by the business owner who calls the function\r",
        "params": {
          "_VAT": "The VAT of the product to add\r",
          "_availability": "The availability of the product to add\r",
          "_name": "The name of the product to add\r",
          "_price": "The price of the product to add\r"
        }
      },
      "buyProduct(uint256,uint256)": {
        "details": "Allows the the registered user who calls the function to buy a certain quantity of a product if it has enough\r     cubits\r",
        "params": {
          "_amount": "The amount of products to buy\r",
          "_productId": "The id of the product to buy\r"
        }
      },
      "constructor": {
        "details": "Sets the correct instance of ContractManager so that the contract may be able to call functions from other\r     contracts\r",
        "params": {
          "_manager": "The address of the instance of ContractManager\r"
        }
      },
      "updateProductAvailability(uint256,uint256)": {
        "details": "Function used by the owner of a product and this contract in order to change the availability of a product\r",
        "params": {
          "_availability": "The new availability of the product\r",
          "_productId": "The id of the product whose name to change\r"
        }
      },
      "updateProductName(uint256,bytes32)": {
        "details": "Function used by the owner of a product and this contract in order to change the name of a product\r",
        "params": {
          "_name": "The new name of the product\r",
          "_productId": "The id of the product whose name to change\r"
        }
      },
      "updateProductPrice(uint256,uint256)": {
        "details": "Function used by the owner of a product and this contract in order to change the price of a product\r",
        "params": {
          "_price": "The new price of the product\r",
          "_productId": "The id of the product whose name to change\r"
        }
      },
      "updateProductVAT(uint256,uint256)": {
        "details": "Function used by the owner of a product and this contract in order to change the availability of a product\r",
        "params": {
          "_VAT": "The new VAT of the product\r",
          "_productId": "The id of the product whose name to change\r"
        }
      }
    }
  },
  "userdoc": {
    "methods": {}
  }
}